{
  "contractName": "ID3Minter",
  "abi": [
    {
      "inputs": [
        {
          "internalType": "uint256",
          "name": "_initialPrice",
          "type": "uint256"
        },
        {
          "internalType": "address",
          "name": "_ownerWallet",
          "type": "address"
        }
      ],
      "stateMutability": "nonpayable",
      "type": "constructor"
    },
    {
      "anonymous": false,
      "inputs": [
        {
          "indexed": true,
          "internalType": "address",
          "name": "owner",
          "type": "address"
        },
        {
          "indexed": true,
          "internalType": "address",
          "name": "approved",
          "type": "address"
        },
        {
          "indexed": true,
          "internalType": "uint256",
          "name": "tokenId",
          "type": "uint256"
        }
      ],
      "name": "Approval",
      "type": "event"
    },
    {
      "anonymous": false,
      "inputs": [
        {
          "indexed": true,
          "internalType": "address",
          "name": "owner",
          "type": "address"
        },
        {
          "indexed": true,
          "internalType": "address",
          "name": "operator",
          "type": "address"
        },
        {
          "indexed": false,
          "internalType": "bool",
          "name": "approved",
          "type": "bool"
        }
      ],
      "name": "ApprovalForAll",
      "type": "event"
    },
    {
      "anonymous": false,
      "inputs": [
        {
          "indexed": false,
          "internalType": "uint256",
          "name": "_fromTokenId",
          "type": "uint256"
        },
        {
          "indexed": false,
          "internalType": "uint256",
          "name": "_toTokenId",
          "type": "uint256"
        }
      ],
      "name": "BatchMetadataUpdate",
      "type": "event"
    },
    {
      "anonymous": false,
      "inputs": [
        {
          "indexed": false,
          "internalType": "uint256",
          "name": "_tokenId",
          "type": "uint256"
        }
      ],
      "name": "MetadataUpdate",
      "type": "event"
    },
    {
      "anonymous": false,
      "inputs": [
        {
          "indexed": true,
          "internalType": "address",
          "name": "previousOwner",
          "type": "address"
        },
        {
          "indexed": true,
          "internalType": "address",
          "name": "newOwner",
          "type": "address"
        }
      ],
      "name": "OwnershipTransferred",
      "type": "event"
    },
    {
      "anonymous": false,
      "inputs": [
        {
          "indexed": false,
          "internalType": "address",
          "name": "account",
          "type": "address"
        }
      ],
      "name": "Paused",
      "type": "event"
    },
    {
      "anonymous": false,
      "inputs": [
        {
          "indexed": true,
          "internalType": "address",
          "name": "from",
          "type": "address"
        },
        {
          "indexed": true,
          "internalType": "address",
          "name": "to",
          "type": "address"
        },
        {
          "indexed": true,
          "internalType": "uint256",
          "name": "tokenId",
          "type": "uint256"
        }
      ],
      "name": "Transfer",
      "type": "event"
    },
    {
      "anonymous": false,
      "inputs": [
        {
          "indexed": false,
          "internalType": "address",
          "name": "account",
          "type": "address"
        }
      ],
      "name": "Unpaused",
      "type": "event"
    },
    {
      "inputs": [
        {
          "internalType": "address",
          "name": "to",
          "type": "address"
        },
        {
          "internalType": "uint256",
          "name": "tokenId",
          "type": "uint256"
        }
      ],
      "name": "approve",
      "outputs": [],
      "stateMutability": "nonpayable",
      "type": "function"
    },
    {
      "inputs": [
        {
          "internalType": "address",
          "name": "owner",
          "type": "address"
        }
      ],
      "name": "balanceOf",
      "outputs": [
        {
          "internalType": "uint256",
          "name": "",
          "type": "uint256"
        }
      ],
      "stateMutability": "view",
      "type": "function",
      "constant": true
    },
    {
      "inputs": [
        {
          "internalType": "uint256",
          "name": "tokenId",
          "type": "uint256"
        }
      ],
      "name": "burn",
      "outputs": [],
      "stateMutability": "nonpayable",
      "type": "function"
    },
    {
      "inputs": [
        {
          "internalType": "uint256",
          "name": "tokenId",
          "type": "uint256"
        }
      ],
      "name": "getApproved",
      "outputs": [
        {
          "internalType": "address",
          "name": "",
          "type": "address"
        }
      ],
      "stateMutability": "view",
      "type": "function",
      "constant": true
    },
    {
      "inputs": [
        {
          "internalType": "address",
          "name": "owner",
          "type": "address"
        },
        {
          "internalType": "address",
          "name": "operator",
          "type": "address"
        }
      ],
      "name": "isApprovedForAll",
      "outputs": [
        {
          "internalType": "bool",
          "name": "",
          "type": "bool"
        }
      ],
      "stateMutability": "view",
      "type": "function",
      "constant": true
    },
    {
      "inputs": [],
      "name": "name",
      "outputs": [
        {
          "internalType": "string",
          "name": "",
          "type": "string"
        }
      ],
      "stateMutability": "view",
      "type": "function",
      "constant": true
    },
    {
      "inputs": [],
      "name": "owner",
      "outputs": [
        {
          "internalType": "address",
          "name": "",
          "type": "address"
        }
      ],
      "stateMutability": "view",
      "type": "function",
      "constant": true
    },
    {
      "inputs": [
        {
          "internalType": "uint256",
          "name": "tokenId",
          "type": "uint256"
        }
      ],
      "name": "ownerOf",
      "outputs": [
        {
          "internalType": "address",
          "name": "",
          "type": "address"
        }
      ],
      "stateMutability": "view",
      "type": "function",
      "constant": true
    },
    {
      "inputs": [],
      "name": "paused",
      "outputs": [
        {
          "internalType": "bool",
          "name": "",
          "type": "bool"
        }
      ],
      "stateMutability": "view",
      "type": "function",
      "constant": true
    },
    {
      "inputs": [
        {
          "internalType": "address",
          "name": "dest",
          "type": "address"
        }
      ],
      "name": "payments",
      "outputs": [
        {
          "internalType": "uint256",
          "name": "",
          "type": "uint256"
        }
      ],
      "stateMutability": "view",
      "type": "function",
      "constant": true
    },
    {
      "inputs": [],
      "name": "renounceOwnership",
      "outputs": [],
      "stateMutability": "nonpayable",
      "type": "function"
    },
    {
      "inputs": [
        {
          "internalType": "address",
          "name": "from",
          "type": "address"
        },
        {
          "internalType": "address",
          "name": "to",
          "type": "address"
        },
        {
          "internalType": "uint256",
          "name": "tokenId",
          "type": "uint256"
        }
      ],
      "name": "safeTransferFrom",
      "outputs": [],
      "stateMutability": "nonpayable",
      "type": "function"
    },
    {
      "inputs": [
        {
          "internalType": "address",
          "name": "from",
          "type": "address"
        },
        {
          "internalType": "address",
          "name": "to",
          "type": "address"
        },
        {
          "internalType": "uint256",
          "name": "tokenId",
          "type": "uint256"
        },
        {
          "internalType": "bytes",
          "name": "data",
          "type": "bytes"
        }
      ],
      "name": "safeTransferFrom",
      "outputs": [],
      "stateMutability": "nonpayable",
      "type": "function"
    },
    {
      "inputs": [
        {
          "internalType": "address",
          "name": "operator",
          "type": "address"
        },
        {
          "internalType": "bool",
          "name": "approved",
          "type": "bool"
        }
      ],
      "name": "setApprovalForAll",
      "outputs": [],
      "stateMutability": "nonpayable",
      "type": "function"
    },
    {
      "inputs": [],
      "name": "symbol",
      "outputs": [
        {
          "internalType": "string",
          "name": "",
          "type": "string"
        }
      ],
      "stateMutability": "view",
      "type": "function",
      "constant": true
    },
    {
      "inputs": [
        {
          "internalType": "uint256",
          "name": "index",
          "type": "uint256"
        }
      ],
      "name": "tokenByIndex",
      "outputs": [
        {
          "internalType": "uint256",
          "name": "",
          "type": "uint256"
        }
      ],
      "stateMutability": "view",
      "type": "function",
      "constant": true
    },
    {
      "inputs": [
        {
          "internalType": "address",
          "name": "owner",
          "type": "address"
        },
        {
          "internalType": "uint256",
          "name": "index",
          "type": "uint256"
        }
      ],
      "name": "tokenOfOwnerByIndex",
      "outputs": [
        {
          "internalType": "uint256",
          "name": "",
          "type": "uint256"
        }
      ],
      "stateMutability": "view",
      "type": "function",
      "constant": true
    },
    {
      "inputs": [],
      "name": "tokenPrice",
      "outputs": [
        {
          "internalType": "uint256",
          "name": "",
          "type": "uint256"
        }
      ],
      "stateMutability": "view",
      "type": "function",
      "constant": true
    },
    {
      "inputs": [],
      "name": "totalSupply",
      "outputs": [
        {
          "internalType": "uint256",
          "name": "",
          "type": "uint256"
        }
      ],
      "stateMutability": "view",
      "type": "function",
      "constant": true
    },
    {
      "inputs": [
        {
          "internalType": "address",
          "name": "from",
          "type": "address"
        },
        {
          "internalType": "address",
          "name": "to",
          "type": "address"
        },
        {
          "internalType": "uint256",
          "name": "tokenId",
          "type": "uint256"
        }
      ],
      "name": "transferFrom",
      "outputs": [],
      "stateMutability": "nonpayable",
      "type": "function"
    },
    {
      "inputs": [
        {
          "internalType": "address",
          "name": "newOwner",
          "type": "address"
        }
      ],
      "name": "transferOwnership",
      "outputs": [],
      "stateMutability": "nonpayable",
      "type": "function"
    },
    {
      "inputs": [
        {
          "internalType": "address payable",
          "name": "payee",
          "type": "address"
        }
      ],
      "name": "withdrawPayments",
      "outputs": [],
      "stateMutability": "nonpayable",
      "type": "function"
    },
    {
      "inputs": [],
      "name": "pause",
      "outputs": [],
      "stateMutability": "nonpayable",
      "type": "function"
    },
    {
      "inputs": [],
      "name": "unpause",
      "outputs": [],
      "stateMutability": "nonpayable",
      "type": "function"
    },
    {
      "inputs": [
        {
          "internalType": "string",
          "name": "uri",
          "type": "string"
        }
      ],
      "name": "safeMint",
      "outputs": [],
      "stateMutability": "nonpayable",
      "type": "function"
    },
    {
      "inputs": [
        {
          "internalType": "string",
          "name": "uri",
          "type": "string"
        }
      ],
      "name": "collectMeraki",
      "outputs": [],
      "stateMutability": "payable",
      "type": "function",
      "payable": true
    },
    {
      "inputs": [
        {
          "internalType": "uint256",
          "name": "_newPrice",
          "type": "uint256"
        }
      ],
      "name": "setPrice",
      "outputs": [],
      "stateMutability": "nonpayable",
      "type": "function"
    },
    {
      "inputs": [
        {
          "internalType": "address",
          "name": "_newOwnerWallet",
          "type": "address"
        }
      ],
      "name": "setOwnerWallet",
      "outputs": [],
      "stateMutability": "nonpayable",
      "type": "function"
    },
    {
      "inputs": [],
      "name": "getCurrentTokenId",
      "outputs": [
        {
          "internalType": "uint256",
          "name": "",
          "type": "uint256"
        }
      ],
      "stateMutability": "view",
      "type": "function",
      "constant": true
    },
    {
      "inputs": [
        {
          "internalType": "uint256",
          "name": "tokenId",
          "type": "uint256"
        }
      ],
      "name": "tokenURI",
      "outputs": [
        {
          "internalType": "string",
          "name": "",
          "type": "string"
        }
      ],
      "stateMutability": "view",
      "type": "function",
      "constant": true
    },
    {
      "inputs": [
        {
          "internalType": "bytes4",
          "name": "interfaceId",
          "type": "bytes4"
        }
      ],
      "name": "supportsInterface",
      "outputs": [
        {
          "internalType": "bool",
          "name": "",
          "type": "bool"
        }
      ],
      "stateMutability": "view",
      "type": "function",
      "constant": true
    }
  ],
  "bytecode": "0x60a06040523480156200001157600080fd5b5060405162002de138038062002de1833981016040819052620000349162000299565b604080518082018252600881527f49443350726f6f6600000000000000000000000000000000000000000000000060208083019182528351808501909452600584527f4944335043000000000000000000000000000000000000000000000000000000908401528151919291620000ae91600091620001e5565b508051620000c4906001906020840190620001e5565b5050600b805460ff1916905550620000f7620000e86401000000006200017e810204565b64010000000062000182810204565b604051620001059062000274565b604051809103906000f08015801562000122573d6000803e3d6000fd5b50600160a060020a039081166c0100000000000000000000000002608052600d839055600e8054600160a060020a03191691831691909117905562000176600c640100000000620001dc810262000d1e1704565b50506200032c565b3390565b600b8054600160a060020a0383811661010081810261010060a860020a031985161790945560405193909204169182907f8be0079c531659141344cd1fd0a4f28419497f9722a3daafe3b4186f6b6457e090600090a35050565b80546001019055565b828054620001f390620002d6565b90600052602060002090601f01602090048101928262000217576000855562000262565b82601f106200023257805160ff191683800117855562000262565b8280016001018555821562000262579182015b828111156200026257825182559160200191906001019062000245565b506200027092915062000282565b5090565b6105d4806200280d83390190565b5b8082111562000270576000815560010162000283565b60008060408385031215620002ac578182fd5b82516020840151909250600160a060020a0381168114620002cb578182fd5b809150509250929050565b600281046001821680620002eb57607f821691505b6020821081141562000326577f4e487b7100000000000000000000000000000000000000000000000000000000600052602260045260246000fd5b50919050565b6080516c0100000000000000000000000090046124a7620003666000396000818161089f01528181610bef0152610e9801526124a76000f3fe60806040526004361061016b5760e060020a600035046301ffc9a7811461017057806306fdde03146101a557806308117b2a146101c7578063081812fc146101dc578063095ea7b31461020957806318160ddd1461022957806323b872dd146102485780632f745c591461026857806331b3eb94146102885780633f4ba83a146102a857806342842e0e146102bd57806342966c68146102dd5780634f6ccce7146102fd578063561892361461031d5780635c975abb146103325780636352211e1461034a578063695850fb1461036a57806370a082311461038a578063715018a6146103aa5780637ff9b596146103bf5780638456cb59146103d55780638da5cb5b146103ea57806391b7f5ed146103ff57806395d89b411461041f578063a22cb46514610434578063b88d4fde14610454578063bb542ef014610474578063c87b56dd14610494578063e2982c21146104b4578063e985e9c5146104d4578063f2fde38b146104f4575b600080fd5b34801561017c57600080fd5b5061019061018b3660046120b6565b610514565b60405190151581526020015b60405180910390f35b3480156101b157600080fd5b506101ba610525565b60405161019c919061220f565b6101da6101d53660046120ee565b6105b7565b005b3480156101e857600080fd5b506101fc6101f7366004612133565b61066e565b60405161019c91906121be565b34801561021557600080fd5b506101da61022436600461208b565b610695565b34801561023557600080fd5b506008545b60405190815260200161019c565b34801561025457600080fd5b506101da610263366004611f9e565b6107b4565b34801561027457600080fd5b5061023a61028336600461208b565b6107e9565b34801561029457600080fd5b506101da6102a3366004611f4a565b610885565b3480156102b457600080fd5b506101da610909565b3480156102c957600080fd5b506101da6102d8366004611f9e565b61091b565b3480156102e957600080fd5b506101da6102f8366004612133565b610936565b34801561030957600080fd5b5061023a610318366004612133565b610967565b34801561032957600080fd5b5061023a610a11565b34801561033e57600080fd5b50600b5460ff16610190565b34801561035657600080fd5b506101fc610365366004612133565b610a21565b34801561037657600080fd5b506101da6103853660046120ee565b610a58565b34801561039657600080fd5b5061023a6103a5366004611f4a565b610a75565b3480156103b657600080fd5b506101da610b01565b3480156103cb57600080fd5b5061023a600d5481565b3480156103e157600080fd5b506101da610b13565b3480156103f657600080fd5b506101fc610b23565b34801561040b57600080fd5b506101da61041a366004612133565b610b37565b34801561042b57600080fd5b506101ba610b44565b34801561044057600080fd5b506101da61044f36600461205a565b610b53565b34801561046057600080fd5b506101da61046f366004611fde565b610b62565b34801561048057600080fd5b506101da61048f366004611f4a565b610b9d565b3480156104a057600080fd5b506101ba6104af366004612133565b610bc7565b3480156104c057600080fd5b5061023a6104cf366004611f4a565b610bd2565b3480156104e057600080fd5b506101906104ef366004611f66565b610c74565b34801561050057600080fd5b506101da61050f366004611f4a565b610ca2565b600061051f82610d27565b92915050565b606060008054610534906123cd565b80601f0160208091040260200160405190810160405280929190818152602001828054610560906123cd565b80156105ad5780601f10610582576101008083540402835291602001916105ad565b820191906000526020600020905b81548152906001019060200180831161059057829003601f168201915b5050505050905090565b6105bf610d4f565b600d543410156106285760405160e560020a62461bcd02815260206004820152602360248201527f4e6f7420656e6f756768204d415449432073656e743b20636865636b20707269604482015260e860020a626365210260648201526084015b60405180910390fd5b610635335b600c54610d9b565b610647610641600c5490565b82610db5565b600e5461065d90600160a060020a031634610e7e565b61066b600c80546001019055565b50565b600061067982610f05565b50600090815260046020526040902054600160a060020a031690565b60006106a082610a21565b905080600160a060020a031683600160a060020a031614156107145760405160e560020a62461bcd02815260206004820152602160248201527f4552433732313a20617070726f76616c20746f2063757272656e74206f776e65604482015260f960020a603902606482015260840161061f565b33600160a060020a038216148061073057506107308133610c74565b6107a55760405160e560020a62461bcd02815260206004820152603d60248201527f4552433732313a20617070726f76652063616c6c6572206973206e6f7420746f60448201527f6b656e206f776e6572206f7220617070726f76656420666f7220616c6c000000606482015260840161061f565b6107af8383610f2d565b505050565b6107bf335b82610f9b565b6107de5760405160e560020a62461bcd02815260040161061f90612222565b6107af838383610ffa565b60006107f483610a75565b821061085c5760405160e560020a62461bcd02815260206004820152602b60248201527f455243373231456e756d657261626c653a206f776e657220696e646578206f75604482015260a860020a6a74206f6620626f756e647302606482015260840161061f565b50600160a060020a03919091166000908152600660209081526040808320938352929052205490565b60405160e060020a6351cff8d9028152600160a060020a037f000000000000000000000000000000000000000000000000000000000000000016906351cff8d9906108d49084906004016121be565b600060405180830381600087803b1580156108ee57600080fd5b505af1158015610902573d6000803e3d6000fd5b5050505050565b610911611165565b6109196111c7565b565b6107af83838360405180602001604052806000815250610b62565b61093f336107b9565b61095e5760405160e560020a62461bcd02815260040161061f90612222565b61066b81611213565b600061097260085490565b82106109db5760405160e560020a62461bcd02815260206004820152602c60248201527f455243373231456e756d657261626c653a20676c6f62616c20696e646578206f604482015260a060020a6b7574206f6620626f756e647302606482015260840161061f565b600882815481106109ff5760e060020a634e487b7102600052603260045260246000fd5b90600052602060002001549050919050565b6000610a1c600c5490565b905090565b600080610a2d8361121c565b9050600160a060020a03811661051f5760405160e560020a62461bcd02815260040161061f90612346565b610a60611165565b610a693361062d565b61065d610641600c5490565b6000600160a060020a038216610ae55760405160e560020a62461bcd02815260206004820152602960248201527f4552433732313a2061646472657373207a65726f206973206e6f742061207661604482015260b960020a683634b21037bbb732b902606482015260840161061f565b50600160a060020a031660009081526003602052604090205490565b610b09611165565b6109196000611237565b610b1b611165565b610919611291565b600b546101009004600160a060020a031690565b610b3f611165565b600d55565b606060018054610534906123cd565b610b5e3383836112ce565b5050565b610b6c3383610f9b565b610b8b5760405160e560020a62461bcd02815260040161061f90612222565b610b978484848461139f565b50505050565b610ba5611165565b600e8054600160a060020a031916600160a060020a0392909216919091179055565b606061051f826113d5565b60405160e160020a6371d4ed8d028152600090600160a060020a037f0000000000000000000000000000000000000000000000000000000000000000169063e3a9db1a90610c249085906004016121be565b60206040518083038186803b158015610c3c57600080fd5b505afa158015610c50573d6000803e3d6000fd5b505050506040513d601f19601f8201168201806040525081019061051f919061214b565b600160a060020a03918216600090815260056020908152604080832093909416825291909152205460ff1690565b610caa611165565b600160a060020a038116610d155760405160e560020a62461bcd02815260206004820152602660248201527f4f776e61626c653a206e6577206f776e657220697320746865207a65726f2061604482015260d060020a6564647265737302606482015260840161061f565b61066b81611237565b80546001019055565b6000600160e060020a0319821660e160020a632483248302148061051f575061051f826114de565b600b5460ff16156109195760405160e560020a62461bcd0281526020600482015260106024820152608260020a6f14185d5cd8589b194e881c185d5cd95902604482015260640161061f565b610b5e828260405180602001604052806000815250611506565b610dbe8261153c565b610e275760405160e560020a62461bcd02815260206004820152602e60248201527f45524337323155524953746f726167653a2055524920736574206f66206e6f6e6044820152609160020a6d32bc34b9ba32b73a103a37b5b2b702606482015260840161061f565b6000828152600a602090815260409091208251610e4692840190611e06565b506040518281527ff8e1a15aba9398e019f0b49df1a4fde98ee17ae345cb5f6b5e2c27f5033e8ce79060200160405180910390a15050565b60405160e060020a63f340fa01028152600160a060020a037f0000000000000000000000000000000000000000000000000000000000000000169063f340fa01908390610ecf9086906004016121be565b6000604051808303818588803b158015610ee857600080fd5b505af1158015610efc573d6000803e3d6000fd5b50505050505050565b610f0e8161153c565b61066b5760405160e560020a62461bcd02815260040161061f90612346565b60008181526004602052604090208054600160a060020a031916600160a060020a0384169081179091558190610f6282610a21565b600160a060020a03167f8c5be1e5ebec7d5bd14f71427d1e84f3dd0314c0f7b2291e5b200ac8c7c3b92560405160405180910390a45050565b600080610fa783610a21565b905080600160a060020a031684600160a060020a03161480610fce5750610fce8185610c74565b80610ff2575083600160a060020a0316610fe78461066e565b600160a060020a0316145b949350505050565b82600160a060020a031661100d82610a21565b600160a060020a0316146110365760405160e560020a62461bcd02815260040161061f906122c7565b600160a060020a03821661109e5760405160e560020a62461bcd028152602060048201526024808201527f4552433732313a207472616e7366657220746f20746865207a65726f20616464604482015260e060020a637265737302606482015260840161061f565b6110ab8383836001611559565b82600160a060020a03166110be82610a21565b600160a060020a0316146110e75760405160e560020a62461bcd02815260040161061f906122c7565b60008181526004602090815260408083208054600160a060020a0319908116909155600160a060020a03878116808652600385528386208054600019019055908716808652838620805460010190558686526002909452828520805490921684179091559051849360008051602061245283398151915291a4505050565b3361116e610b23565b600160a060020a0316146109195760405160e560020a62461bcd02815260206004820181905260248201527f4f776e61626c653a2063616c6c6572206973206e6f7420746865206f776e6572604482015260640161061f565b6111cf61156d565b600b805460ff191690557f5db9ee0a495bf2e6ff9c91a7834c1ba4fdd244a5e8aa4e537bd38aeae4b073aa335b60405161120991906121be565b60405180910390a1565b61066b816115bc565b600090815260026020526040902054600160a060020a031690565b600b8054600160a060020a0383811661010081810261010060a860020a031985161790945560405193909204169182907f8be0079c531659141344cd1fd0a4f28419497f9722a3daafe3b4186f6b6457e090600090a35050565b611299610d4f565b600b805460ff191660011790557f62e78cea01bee320cd4e420270b5ea74000d11b0c9f74754ebdbfc544b05a2586111fc3390565b81600160a060020a031683600160a060020a031614156113325760405160e560020a62461bcd0281526020600482015260196024820152603960020a7822a9219b99189d1030b8383937bb32903a379031b0b63632b902604482015260640161061f565b600160a060020a03838116600081815260056020908152604080832094871680845294825291829020805460ff191686151590811790915591519182527f17307eab39ab6107e8899845ad3d59bd9653f200f220920489ca2b5937696c31910160405180910390a3505050565b6113aa848484610ffa565b6113b6848484846115fc565b610b975760405160e560020a62461bcd02815260040161061f90612272565b60606113e082610f05565b6000828152600a6020526040812080546113f9906123cd565b80601f0160208091040260200160405190810160405280929190818152602001828054611425906123cd565b80156114725780601f1061144757610100808354040283529160200191611472565b820191906000526020600020905b81548152906001019060200180831161145557829003601f168201915b50505050509050600061149060408051602081019091526000815290565b90508051600014156114a3575092915050565b8151156114d55780826040516020016114bd92919061218f565b60405160208183030381529060405292505050919050565b610ff284611712565b6000600160e060020a0319821660e060020a63780e9d6302148061051f575061051f82611786565b61151083836117df565b61151d60008484846115fc565b6107af5760405160e560020a62461bcd02815260040161061f90612272565b6000806115488361121c565b600160a060020a0316141592915050565b611561610d4f565b610b97848484846118f1565b600b5460ff166109195760405160e560020a62461bcd0281526020600482015260146024820152606260020a7314185d5cd8589b194e881b9bdd081c185d5cd95902604482015260640161061f565b6115c581611a24565b6000818152600a6020526040902080546115de906123cd565b15905061066b576000818152600a6020526040812061066b91611e8a565b6000600160a060020a0384163b156117075760405160e160020a630a85bd01028152600160a060020a0385169063150b7a02906116439033908990889088906004016121d2565b602060405180830381600087803b15801561165d57600080fd5b505af192505050801561168d575060408051601f3d908101601f1916820190925261168a918101906120d2565b60015b6116ea573d8080156116bb576040519150601f19603f3d011682016040523d82523d6000602084013e6116c0565b606091505b5080516116e25760405160e560020a62461bcd02815260040161061f90612272565b805181602001fd5b600160e060020a03191660e160020a630a85bd0102149050610ff2565b506001949350505050565b606061171d82610f05565b600061173460408051602081019091526000815290565b90506000815111611754576040518060200160405280600081525061177f565b8061175e84611ab5565b60405160200161176f92919061218f565b6040516020818303038152906040525b9392505050565b6000600160e060020a0319821660e060020a6380ac58cd0214806117bd5750600160e060020a0319821660e060020a635b5e139f02145b8061051f575060e060020a6301ffc9a702600160e060020a031983161461051f565b600160a060020a0382166118385760405160e560020a62461bcd02815260206004820181905260248201527f4552433732313a206d696e7420746f20746865207a65726f2061646472657373604482015260640161061f565b6118418161153c565b156118615760405160e560020a62461bcd02815260040161061f9061230f565b61186f600083836001611559565b6118788161153c565b156118985760405160e560020a62461bcd02815260040161061f9061230f565b600160a060020a03821660008181526003602090815260408083208054600101905584835260029091528082208054600160a060020a031916841790555183929190600080516020612452833981519152908290a45050565b60018111156119665760405160e560020a62461bcd02815260206004820152603560248201527f455243373231456e756d657261626c653a20636f6e73656375746976652074726044820152605a60020a74185b9cd9995c9cc81b9bdd081cdd5c1c1bdc9d195902606482015260840161061f565b81600160a060020a0385166119c2576119bd81600880546000838152600960205260408120829055600182018355919091527ff3f7a9fe364faab93b216da50a3214154f22a0a2b415b23a84c8169e8b636ee30155565b6119e5565b83600160a060020a031685600160a060020a0316146119e5576119e58582611b65565b600160a060020a038416611a01576119fc81611c02565b610902565b84600160a060020a031684600160a060020a031614610902576109028482611ce4565b6000611a2f82610a21565b9050611a3f816000846001611559565b611a4882610a21565b60008381526004602090815260408083208054600160a060020a0319908116909155600160a060020a038516808552600384528285208054600019019055878552600290935281842080549091169055519293508492600080516020612452833981519152908390a45050565b60606000611ac283611d28565b60010190506000816001604060020a03811115611af25760e060020a634e487b7102600052604160045260246000fd5b6040519080825280601f01601f191660200182016040528015611b1c576020820181803683370190505b5090508181016020015b60001901608160020a6f181899199a1a9b1b9c1cb0b131b232b302600a86061a8153600a8504945084611b5857611b5d565b611b26565b509392505050565b60006001611b7284610a75565b611b7c919061237b565b600083815260076020526040902054909150808214611bcf57600160a060020a03841660009081526006602090815260408083208584528252808320548484528184208190558352600790915290208190555b506000918252600760209081526040808420849055600160a060020a039094168352600681528383209183525290812055565b600854600090611c149060019061237b565b60008381526009602052604081205460088054939450909284908110611c4d5760e060020a634e487b7102600052603260045260246000fd5b906000526020600020015490508060088381548110611c7f5760e060020a634e487b7102600052603260045260246000fd5b6000918252602080832090910192909255828152600990915260408082208490558582528120556008805480611cc85760e060020a634e487b7102600052603160045260246000fd5b6001900381819060005260206000200160009055905550505050565b6000611cef83610a75565b600160a060020a039093166000908152600660209081526040808320868452825280832085905593825260079052919091209190915550565b600080604060020a72184f03e93ff9f4daa797ed6e38ed64bf6a1f01028310611d6d57604060020a72184f03e93ff9f4daa797ed6e38ed64bf6a1f0102830492506040015b6d04ee2d6d415b85acef81000000008310611d99576d04ee2d6d415b85acef8100000000830492506020015b662386f26fc100008310611db757662386f26fc10000830492506010015b6305f5e1008310611dcf576305f5e100830492506008015b6127108310611de357612710830492506004015b60648310611df5576064830492506002015b600a831061051f5760010192915050565b828054611e12906123cd565b90600052602060002090601f016020900481019282611e345760008555611e7a565b82601f10611e4d57805160ff1916838001178555611e7a565b82800160010185558215611e7a579182015b82811115611e7a578251825591602001919060010190611e5f565b50611e86929150611ec0565b5090565b508054611e96906123cd565b6000825580601f10611ea6575050565b601f01602090049060005260206000209081019061066b91905b5b80821115611e865760008155600101611ec1565b60006001604060020a0380841115611eef57611eef61240c565b604051601f8501601f19908116603f01168101908282118183101715611f1757611f1761240c565b81604052809350858152868686011115611f3057600080fd5b858560208301376000602087830101525050509392505050565b600060208284031215611f5b578081fd5b813561177f81612426565b60008060408385031215611f78578081fd5b8235611f8381612426565b91506020830135611f9381612426565b809150509250929050565b600080600060608486031215611fb2578081fd5b8335611fbd81612426565b92506020840135611fcd81612426565b929592945050506040919091013590565b60008060008060808587031215611ff3578081fd5b8435611ffe81612426565b9350602085013561200e81612426565b92506040850135915060608501356001604060020a0381111561202f578182fd5b8501601f8101871361203f578182fd5b61204e87823560208401611ed5565b91505092959194509250565b6000806040838503121561206c578182fd5b823561207781612426565b915060208301358015158114611f93578182fd5b6000806040838503121561209d578182fd5b82356120a881612426565b946020939093013593505050565b6000602082840312156120c7578081fd5b813561177f8161243b565b6000602082840312156120e3578081fd5b815161177f8161243b565b6000602082840312156120ff578081fd5b81356001604060020a03811115612114578182fd5b8201601f81018413612124578182fd5b610ff284823560208401611ed5565b600060208284031215612144578081fd5b5035919050565b60006020828403121561215c578081fd5b5051919050565b6000815180845261217b8160208601602086016123a1565b601f01601f19169290920160200192915050565b600083516121a18184602088016123a1565b8351908301906121b58183602088016123a1565b01949350505050565b600160a060020a0391909116815260200190565b600160a060020a038581168252841660208201526040810183905260806060820181905260009061220590830184612163565b9695505050505050565b60208152600061177f6020830184612163565b6020808252602d908201527f4552433732313a2063616c6c6572206973206e6f7420746f6b656e206f776e656040820152609a60020a6c1c881bdc88185c1c1c9bdd995902606082015260800190565b60208082526032908201527f4552433732313a207472616e7366657220746f206e6f6e2045524337323152656040820152607160020a7131b2b4bb32b91034b6b83632b6b2b73a32b902606082015260800190565b60208082526025908201527f4552433732313a207472616e736665722066726f6d20696e636f727265637420604082015260d960020a6437bbb732b902606082015260800190565b6020808252601c908201527f4552433732313a20746f6b656e20616c7265616479206d696e74656400000000604082015260600190565b6020808252601890820152604260020a77115490cdcc8c4e881a5b9d985b1a59081d1bdad95b88125102604082015260600190565b60008282101561239c5760e060020a634e487b710281526011600452602481fd5b500390565b60005b838110156123bc5781810151838201526020016123a4565b83811115610b975750506000910152565b6002810460018216806123e157607f821691505b602082108114156124065760e060020a634e487b710260009081526022600452602490fd5b50919050565b60e060020a634e487b710260009081526041600452602490fd5b600160a060020a038116811461066b57600080fd5b600160e060020a03198116811461066b57600080fdfeddf252ad1be2c89b69c2b068fc378daa952ba7f163c4a11628f55a4df523b3efa26469706673582212209b72f32896d5f0d27d1b3541502029ec3db21ab8ec847ce7841b1de9f88a08d964736f6c63430008040033608060405234801561001057600080fd5b50610033610025640100000000610038810204565b64010000000061003c810204565b61008c565b3390565b60008054600160a060020a03838116600160a060020a0319831681178455604051919092169283917f8be0079c531659141344cd1fd0a4f28419497f9722a3daafe3b4186f6b6457e09190a35050565b6105398061009b6000396000f3fe6080604052600436106100585760e060020a600035046351cff8d9811461005d578063715018a61461007f5780638da5cb5b14610094578063e3a9db1a146100c6578063f2fde38b1461010a578063f340fa011461012a575b600080fd5b34801561006957600080fd5b5061007d6100783660046104a4565b61013d565b005b34801561008b57600080fd5b5061007d6101b4565b3480156100a057600080fd5b506100a96101c8565b604051600160a060020a0390911681526020015b60405180910390f35b3480156100d257600080fd5b506100fc6100e13660046104a4565b600160a060020a031660009081526001602052604090205490565b6040519081526020016100bd565b34801561011657600080fd5b5061007d6101253660046104a4565b6101d7565b61007d6101383660046104a4565b61025b565b6101456102cd565b600160a060020a038116600081815260016020526040812080549190559061016d908261032f565b81600160a060020a03167f7084f5476618d8e60b11ef0d7d3f06914655adb8793e28ff7f018d4c76d505d5826040516101a891815260200190565b60405180910390a25050565b6101bc6102cd565b6101c66000610454565b565b600054600160a060020a031690565b6101df6102cd565b600160a060020a03811661024f5760405160e560020a62461bcd02815260206004820152602660248201527f4f776e61626c653a206e6577206f776e657220697320746865207a65726f2061604482015260d060020a656464726573730260648201526084015b60405180910390fd5b61025881610454565b50565b6102636102cd565b600160a060020a03811660009081526001602052604081208054349283929161028d9084906104c7565b9091555050604051818152600160a060020a038316907f2da466a7b24304f47e87fa2e1e5a81b9831ce54fec19055ce277ca2f39ba42c4906020016101a8565b336102d66101c8565b600160a060020a0316146101c65760405160e560020a62461bcd02815260206004820181905260248201527f4f776e61626c653a2063616c6c6572206973206e6f7420746865206f776e65726044820152606401610246565b30318111156103835760405160e560020a62461bcd02815260206004820152601d60248201527f416464726573733a20696e73756666696369656e742062616c616e63650000006044820152606401610246565b600082600160a060020a03168260405160006040518083038185875af1925050503d80600081146103d0576040519150601f19603f3d011682016040523d82523d6000602084013e6103d5565b606091505b505090508061044f5760405160e560020a62461bcd02815260206004820152603a60248201527f416464726573733a20756e61626c6520746f2073656e642076616c75652c207260448201527f6563697069656e74206d617920686176652072657665727465640000000000006064820152608401610246565b505050565b60008054600160a060020a03838116600160a060020a0319831681178455604051919092169283917f8be0079c531659141344cd1fd0a4f28419497f9722a3daafe3b4186f6b6457e09190a35050565b6000602082840312156104b5578081fd5b81356104c0816104ee565b9392505050565b600082198211156104e95760e060020a634e487b710281526011600452602481fd5b500190565b600160a060020a038116811461025857600080fdfea2646970667358221220e3a3edb6c16230f9d4b478ec93e1ca8caa9d8f03edf7e6b057a4a210c5d78feb64736f6c63430008040033",
  "immutableReferences": {
    "545": [
      {
        "length": 32,
        "start": 2207
      },
      {
        "length": 32,
        "start": 3055
      },
      {
        "length": 32,
        "start": 3736
      }
    ]
  },
  "source": "// SPDX-License-Identifier: MIT\npragma solidity ^0.8.4;\n\nimport \"../node_modules/@openzeppelin/contracts/token/ERC721/ERC721.sol\";\nimport \"../node_modules/@openzeppelin/contracts/token/ERC721/extensions/ERC721Enumerable.sol\";\nimport \"../node_modules/@openzeppelin/contracts/token/ERC721/extensions/ERC721URIStorage.sol\";\nimport \"../node_modules/@openzeppelin/contracts/security/Pausable.sol\";\nimport \"../node_modules/@openzeppelin/contracts/access/Ownable.sol\";\nimport \"../node_modules/@openzeppelin/contracts/token/ERC721/extensions/ERC721Burnable.sol\";\nimport \"../node_modules/@openzeppelin/contracts/utils/Counters.sol\";\nimport \"../node_modules/@openzeppelin/contracts/security/PullPayment.sol\";\n\n\n// ERC721 es el estandar de los NFTs que utilizaremos para la coleccin. Ms informacin en https://eips.ethereum.org/EIPS/eip-721\n// ERC721Enumerable es una extensin de ERC721 que permite listar los tokens de un usuario. Ms informacin en https://eips.ethereum.org/EIPS/eip-721\n// ERC721URIStorage es una extensin de ERC721 que permite almacenar los metadatos de los tokens. Ms informacin en https://eips.ethereum.org/EIPS/eip-721\n// Pausable es un contrato que permite pausar la transferencia de tokens. Ms informacin en https://docs.openzeppelin.com/contracts/4.x/api/security#Pausable\n// Ownable es un contrato que permite establecer un propietario del contrato. Ms informacin en https://docs.openzeppelin.com/contracts/4.x/api/access#Ownable\n// ERC721Burnable es una extensin de ERC721 que permite quemar tokens. Ms informacin en https://docs.openzeppelin.com/contracts/4.x/api/token/erc721#ERC721Burnable\n// Counters es una librera que permite llevar la cuenta de tokens. Ms informacin en https://docs.openzeppelin.com/contracts/4.x/api/utils#Counters\n// PullPayment es un contrato que permite realizar pagos. Ms informacin en https://docs.openzeppelin.com/contracts/4.x/api/payment#PullPayment\n\ncontract ID3Minter is ERC721, ERC721Enumerable, ERC721URIStorage, Pausable, Ownable, ERC721Burnable, PullPayment {\n\n\n    /* El modificador onlyOwner permite que solo el propietario del contrato pueda ejecutar la funcin a la que se le aplica */\n\n    // Usamos la librera Counters para llevar la cuenta de tokens y asignar el ID de cada token. Se declara la variable _tokenIdCounter para ello.\n    using Counters for Counters.Counter;\n    Counters.Counter private _tokenIdCounter;   \n\n    uint256 public tokenPrice; // Precio de cada token\n    address private ownerWallet; // Direccin del propietario del contrato\n\n    // En el constructor establecemos el nombre y el smbolo de la coleccin\n\n    constructor(uint256 _initialPrice, address _ownerWallet) ERC721(\"ID3Proof\", \"ID3PC\") {\n\n        tokenPrice = _initialPrice; // Establecemos el precio de cada token. Merakis Collection en Mumbai es de 10000000000000000 wei (0.01 ETH)\n        ownerWallet = _ownerWallet; // Establecemos la direccin del propietario del contrato\n        _tokenIdCounter.increment();\n\n    }\n\n    // La funcin pause() permite pausar la transferencia de tokens. Solo el propietario del contrato puede ejecutarla.\n\n    function pause() public onlyOwner {\n        _pause();\n    }\n\n    // La funcin unpause() permite reanudar la transferencia de tokens. Slo el propietario del contrato puede ejecutarla.\n\n    function unpause() public onlyOwner {\n        _unpause();\n    }\n\n    // La funcin safeMint() permite crear un nuevo token y asignarlo a una direccin. Solo el propietario del contrato puede ejecutarla.\n\n    function safeMint(string memory uri)\n        public\n        onlyOwner\n    {   \n        \n        _safeMint(_msgSender(), _tokenIdCounter.current());\n        _setTokenURI(_tokenIdCounter.current(), uri);\n        _tokenIdCounter.increment();\n    }\n\n    // La funcin collectMeraki() permite crear un nuevo token y asignarlo a la direccin que la ejecuta. El usuario debe enviar suficiente MATIC para comprar el token.\n\n    function collectMeraki(string memory uri)\n    external\n    payable\n    whenNotPaused\n    {\n    require(msg.value >= tokenPrice, \"Not enough MATIC sent; check price!\"); // Comprobamos que el usuario ha enviado suficiente MATIC para comprar el token\n        \n        \n        _safeMint(_msgSender(), _tokenIdCounter.current());\n        _setTokenURI(_tokenIdCounter.current(), uri);\n        _asyncTransfer(ownerWallet, msg.value); // Enviamos el MATIC al propietario del contrato\n        _tokenIdCounter.increment();\n\n    }\n\n    //La funcin setPrice() permite establecer un nuevo precio para los tokens. Solo el propietario del contrato puede ejecutarla.\n\n    function setPrice(uint256 _newPrice) external onlyOwner{\n\n        tokenPrice = _newPrice;\n\n    }\n\n    // La funcin setOwnerWallet() permite establecer una nueva direccin para el propietario del contrato. Solo el propietario del contrato puede ejecutarla.\n\n    function setOwnerWallet(address _newOwnerWallet) external onlyOwner{\n\n        ownerWallet = _newOwnerWallet;\n\n    }\n\n    // La funcin getCurrentTokenId() permite obtener el ID del ltimo token creado.\n\n    function getCurrentTokenId() public view returns (uint256) {\n        return _tokenIdCounter.current();\n    }\n\n    /* Las siguientes funciones son overrides de las funciones de los contratos que heredamos,\n       son necesarias para el correcto funcionamiento del contrato */\n\n    function _beforeTokenTransfer(address from, address to, uint256 tokenId, uint256 batchSize)\n        internal\n        whenNotPaused\n        override(ERC721, ERC721Enumerable)\n    {\n        super._beforeTokenTransfer(from, to, tokenId, batchSize);\n    }\n\n    // La funcin _burn() permite quemar un token\n\n    function _burn(uint256 tokenId) internal override(ERC721, ERC721URIStorage) {\n        super._burn(tokenId);\n    }\n\n    // La funcin tokenURI() permite obtener los metadatos de un token\n\n    function tokenURI(uint256 tokenId)\n        public\n        view\n        override(ERC721, ERC721URIStorage)\n        returns (string memory)\n    {\n        return super.tokenURI(tokenId);\n    }\n\n    // La funcin supportsInterface() permite comprobar si el contrato soporta una interfaz determinada\n\n    function supportsInterface(bytes4 interfaceId)\n        public\n        view\n        override(ERC721, ERC721Enumerable, ERC721URIStorage)\n        returns (bool)\n    {\n        return super.supportsInterface(interfaceId);\n    }\n}\n",
  "sourcePath": "E:\\Chamba\\ESAT\\2023\\id3\\Static Version\\minter\\contracts\\ID3Minter.sol",
  "compiler": {
    "name": "solc",
    "version": "0.8.4+commit.c7e474f2.Emscripten.clang"
  },
  "schemaVersion": "3.4.14",
  "updatedAt": "2023-06-02T13:49:35.256Z",
  "networkType": "ethereum",
  "devdoc": {
    "kind": "dev",
    "methods": {
      "approve(address,uint256)": {
        "details": "See {IERC721-approve}."
      },
      "balanceOf(address)": {
        "details": "See {IERC721-balanceOf}."
      },
      "burn(uint256)": {
        "details": "Burns `tokenId`. See {ERC721-_burn}. Requirements: - The caller must own `tokenId` or be an approved operator."
      },
      "getApproved(uint256)": {
        "details": "See {IERC721-getApproved}."
      },
      "isApprovedForAll(address,address)": {
        "details": "See {IERC721-isApprovedForAll}."
      },
      "name()": {
        "details": "See {IERC721Metadata-name}."
      },
      "owner()": {
        "details": "Returns the address of the current owner."
      },
      "ownerOf(uint256)": {
        "details": "See {IERC721-ownerOf}."
      },
      "paused()": {
        "details": "Returns true if the contract is paused, and false otherwise."
      },
      "payments(address)": {
        "details": "Returns the payments owed to an address.",
        "params": {
          "dest": "The creditor's address."
        }
      },
      "renounceOwnership()": {
        "details": "Leaves the contract without owner. It will not be possible to call `onlyOwner` functions. Can only be called by the current owner. NOTE: Renouncing ownership will leave the contract without an owner, thereby disabling any functionality that is only available to the owner."
      },
      "safeTransferFrom(address,address,uint256)": {
        "details": "See {IERC721-safeTransferFrom}."
      },
      "safeTransferFrom(address,address,uint256,bytes)": {
        "details": "See {IERC721-safeTransferFrom}."
      },
      "setApprovalForAll(address,bool)": {
        "details": "See {IERC721-setApprovalForAll}."
      },
      "symbol()": {
        "details": "See {IERC721Metadata-symbol}."
      },
      "tokenByIndex(uint256)": {
        "details": "See {IERC721Enumerable-tokenByIndex}."
      },
      "tokenOfOwnerByIndex(address,uint256)": {
        "details": "See {IERC721Enumerable-tokenOfOwnerByIndex}."
      },
      "totalSupply()": {
        "details": "See {IERC721Enumerable-totalSupply}."
      },
      "transferFrom(address,address,uint256)": {
        "details": "See {IERC721-transferFrom}."
      },
      "transferOwnership(address)": {
        "details": "Transfers ownership of the contract to a new account (`newOwner`). Can only be called by the current owner."
      },
      "withdrawPayments(address)": {
        "details": "Withdraw accumulated payments, forwarding all gas to the recipient. Note that _any_ account can call this function, not just the `payee`. This means that contracts unaware of the `PullPayment` protocol can still receive funds this way, by having a separate account call {withdrawPayments}. WARNING: Forwarding all gas opens the door to reentrancy vulnerabilities. Make sure you trust the recipient, or are either following the checks-effects-interactions pattern or using {ReentrancyGuard}.",
        "params": {
          "payee": "Whose payments will be withdrawn. Causes the `escrow` to emit a {Withdrawn} event."
        }
      }
    },
    "version": 1
  },
  "userdoc": {
    "kind": "user",
    "methods": {},
    "version": 1
  }
}