{
  "contractName": "ID3Minter",
  "abi": [
    {
      "inputs": [
        {
          "internalType": "address",
          "name": "_beneficiarioWallet",
          "type": "address"
        }
      ],
      "stateMutability": "nonpayable",
      "type": "constructor"
    },
    {
      "anonymous": false,
      "inputs": [
        {
          "indexed": true,
          "internalType": "address",
          "name": "owner",
          "type": "address"
        },
        {
          "indexed": true,
          "internalType": "address",
          "name": "approved",
          "type": "address"
        },
        {
          "indexed": true,
          "internalType": "uint256",
          "name": "tokenId",
          "type": "uint256"
        }
      ],
      "name": "Approval",
      "type": "event"
    },
    {
      "anonymous": false,
      "inputs": [
        {
          "indexed": true,
          "internalType": "address",
          "name": "owner",
          "type": "address"
        },
        {
          "indexed": true,
          "internalType": "address",
          "name": "operator",
          "type": "address"
        },
        {
          "indexed": false,
          "internalType": "bool",
          "name": "approved",
          "type": "bool"
        }
      ],
      "name": "ApprovalForAll",
      "type": "event"
    },
    {
      "anonymous": false,
      "inputs": [
        {
          "indexed": false,
          "internalType": "uint256",
          "name": "_fromTokenId",
          "type": "uint256"
        },
        {
          "indexed": false,
          "internalType": "uint256",
          "name": "_toTokenId",
          "type": "uint256"
        }
      ],
      "name": "BatchMetadataUpdate",
      "type": "event"
    },
    {
      "anonymous": false,
      "inputs": [
        {
          "indexed": false,
          "internalType": "uint256",
          "name": "_tokenId",
          "type": "uint256"
        }
      ],
      "name": "MetadataUpdate",
      "type": "event"
    },
    {
      "anonymous": false,
      "inputs": [
        {
          "indexed": true,
          "internalType": "address",
          "name": "previousOwner",
          "type": "address"
        },
        {
          "indexed": true,
          "internalType": "address",
          "name": "newOwner",
          "type": "address"
        }
      ],
      "name": "OwnershipTransferred",
      "type": "event"
    },
    {
      "anonymous": false,
      "inputs": [
        {
          "indexed": false,
          "internalType": "address",
          "name": "account",
          "type": "address"
        }
      ],
      "name": "Paused",
      "type": "event"
    },
    {
      "anonymous": false,
      "inputs": [
        {
          "indexed": true,
          "internalType": "address",
          "name": "from",
          "type": "address"
        },
        {
          "indexed": true,
          "internalType": "address",
          "name": "to",
          "type": "address"
        },
        {
          "indexed": true,
          "internalType": "uint256",
          "name": "tokenId",
          "type": "uint256"
        }
      ],
      "name": "Transfer",
      "type": "event"
    },
    {
      "anonymous": false,
      "inputs": [
        {
          "indexed": false,
          "internalType": "address",
          "name": "account",
          "type": "address"
        }
      ],
      "name": "Unpaused",
      "type": "event"
    },
    {
      "inputs": [
        {
          "internalType": "address",
          "name": "to",
          "type": "address"
        },
        {
          "internalType": "uint256",
          "name": "tokenId",
          "type": "uint256"
        }
      ],
      "name": "approve",
      "outputs": [],
      "stateMutability": "nonpayable",
      "type": "function"
    },
    {
      "inputs": [
        {
          "internalType": "address",
          "name": "owner",
          "type": "address"
        }
      ],
      "name": "balanceOf",
      "outputs": [
        {
          "internalType": "uint256",
          "name": "",
          "type": "uint256"
        }
      ],
      "stateMutability": "view",
      "type": "function",
      "constant": true
    },
    {
      "inputs": [
        {
          "internalType": "uint256",
          "name": "tokenId",
          "type": "uint256"
        }
      ],
      "name": "burn",
      "outputs": [],
      "stateMutability": "nonpayable",
      "type": "function"
    },
    {
      "inputs": [
        {
          "internalType": "uint256",
          "name": "tokenId",
          "type": "uint256"
        }
      ],
      "name": "getApproved",
      "outputs": [
        {
          "internalType": "address",
          "name": "",
          "type": "address"
        }
      ],
      "stateMutability": "view",
      "type": "function",
      "constant": true
    },
    {
      "inputs": [
        {
          "internalType": "address",
          "name": "owner",
          "type": "address"
        },
        {
          "internalType": "address",
          "name": "operator",
          "type": "address"
        }
      ],
      "name": "isApprovedForAll",
      "outputs": [
        {
          "internalType": "bool",
          "name": "",
          "type": "bool"
        }
      ],
      "stateMutability": "view",
      "type": "function",
      "constant": true
    },
    {
      "inputs": [],
      "name": "name",
      "outputs": [
        {
          "internalType": "string",
          "name": "",
          "type": "string"
        }
      ],
      "stateMutability": "view",
      "type": "function",
      "constant": true
    },
    {
      "inputs": [],
      "name": "owner",
      "outputs": [
        {
          "internalType": "address",
          "name": "",
          "type": "address"
        }
      ],
      "stateMutability": "view",
      "type": "function",
      "constant": true
    },
    {
      "inputs": [
        {
          "internalType": "uint256",
          "name": "tokenId",
          "type": "uint256"
        }
      ],
      "name": "ownerOf",
      "outputs": [
        {
          "internalType": "address",
          "name": "",
          "type": "address"
        }
      ],
      "stateMutability": "view",
      "type": "function",
      "constant": true
    },
    {
      "inputs": [],
      "name": "paused",
      "outputs": [
        {
          "internalType": "bool",
          "name": "",
          "type": "bool"
        }
      ],
      "stateMutability": "view",
      "type": "function",
      "constant": true
    },
    {
      "inputs": [
        {
          "internalType": "address",
          "name": "dest",
          "type": "address"
        }
      ],
      "name": "payments",
      "outputs": [
        {
          "internalType": "uint256",
          "name": "",
          "type": "uint256"
        }
      ],
      "stateMutability": "view",
      "type": "function",
      "constant": true
    },
    {
      "inputs": [],
      "name": "renounceOwnership",
      "outputs": [],
      "stateMutability": "nonpayable",
      "type": "function"
    },
    {
      "inputs": [
        {
          "internalType": "address",
          "name": "from",
          "type": "address"
        },
        {
          "internalType": "address",
          "name": "to",
          "type": "address"
        },
        {
          "internalType": "uint256",
          "name": "tokenId",
          "type": "uint256"
        }
      ],
      "name": "safeTransferFrom",
      "outputs": [],
      "stateMutability": "nonpayable",
      "type": "function"
    },
    {
      "inputs": [
        {
          "internalType": "address",
          "name": "from",
          "type": "address"
        },
        {
          "internalType": "address",
          "name": "to",
          "type": "address"
        },
        {
          "internalType": "uint256",
          "name": "tokenId",
          "type": "uint256"
        },
        {
          "internalType": "bytes",
          "name": "data",
          "type": "bytes"
        }
      ],
      "name": "safeTransferFrom",
      "outputs": [],
      "stateMutability": "nonpayable",
      "type": "function"
    },
    {
      "inputs": [
        {
          "internalType": "address",
          "name": "operator",
          "type": "address"
        },
        {
          "internalType": "bool",
          "name": "approved",
          "type": "bool"
        }
      ],
      "name": "setApprovalForAll",
      "outputs": [],
      "stateMutability": "nonpayable",
      "type": "function"
    },
    {
      "inputs": [],
      "name": "symbol",
      "outputs": [
        {
          "internalType": "string",
          "name": "",
          "type": "string"
        }
      ],
      "stateMutability": "view",
      "type": "function",
      "constant": true
    },
    {
      "inputs": [
        {
          "internalType": "uint256",
          "name": "index",
          "type": "uint256"
        }
      ],
      "name": "tokenByIndex",
      "outputs": [
        {
          "internalType": "uint256",
          "name": "",
          "type": "uint256"
        }
      ],
      "stateMutability": "view",
      "type": "function",
      "constant": true
    },
    {
      "inputs": [
        {
          "internalType": "address",
          "name": "owner",
          "type": "address"
        },
        {
          "internalType": "uint256",
          "name": "index",
          "type": "uint256"
        }
      ],
      "name": "tokenOfOwnerByIndex",
      "outputs": [
        {
          "internalType": "uint256",
          "name": "",
          "type": "uint256"
        }
      ],
      "stateMutability": "view",
      "type": "function",
      "constant": true
    },
    {
      "inputs": [],
      "name": "tokenPrice",
      "outputs": [
        {
          "internalType": "uint256",
          "name": "",
          "type": "uint256"
        }
      ],
      "stateMutability": "view",
      "type": "function",
      "constant": true
    },
    {
      "inputs": [],
      "name": "totalSupply",
      "outputs": [
        {
          "internalType": "uint256",
          "name": "",
          "type": "uint256"
        }
      ],
      "stateMutability": "view",
      "type": "function",
      "constant": true
    },
    {
      "inputs": [
        {
          "internalType": "address",
          "name": "from",
          "type": "address"
        },
        {
          "internalType": "address",
          "name": "to",
          "type": "address"
        },
        {
          "internalType": "uint256",
          "name": "tokenId",
          "type": "uint256"
        }
      ],
      "name": "transferFrom",
      "outputs": [],
      "stateMutability": "nonpayable",
      "type": "function"
    },
    {
      "inputs": [
        {
          "internalType": "address",
          "name": "newOwner",
          "type": "address"
        }
      ],
      "name": "transferOwnership",
      "outputs": [],
      "stateMutability": "nonpayable",
      "type": "function"
    },
    {
      "inputs": [
        {
          "internalType": "address payable",
          "name": "payee",
          "type": "address"
        }
      ],
      "name": "withdrawPayments",
      "outputs": [],
      "stateMutability": "nonpayable",
      "type": "function"
    },
    {
      "inputs": [
        {
          "internalType": "address",
          "name": "_newstudent",
          "type": "address"
        }
      ],
      "name": "isStudentSetter",
      "outputs": [],
      "stateMutability": "nonpayable",
      "type": "function"
    },
    {
      "inputs": [
        {
          "internalType": "address",
          "name": "_newbeneficiarioWallet",
          "type": "address"
        }
      ],
      "name": "setbeneficiarioWallet",
      "outputs": [],
      "stateMutability": "nonpayable",
      "type": "function"
    },
    {
      "inputs": [
        {
          "internalType": "uint256",
          "name": "_newPrice",
          "type": "uint256"
        }
      ],
      "name": "setPrice",
      "outputs": [],
      "stateMutability": "nonpayable",
      "type": "function"
    },
    {
      "inputs": [
        {
          "internalType": "address",
          "name": "_student",
          "type": "address"
        }
      ],
      "name": "isStudentGetter",
      "outputs": [
        {
          "internalType": "bool",
          "name": "",
          "type": "bool"
        }
      ],
      "stateMutability": "view",
      "type": "function",
      "constant": true
    },
    {
      "inputs": [
        {
          "internalType": "address",
          "name": "_student",
          "type": "address"
        },
        {
          "internalType": "string",
          "name": "_course",
          "type": "string"
        }
      ],
      "name": "getDiploma",
      "outputs": [
        {
          "components": [
            {
              "internalType": "address",
              "name": "student",
              "type": "address"
            },
            {
              "internalType": "string",
              "name": "name",
              "type": "string"
            },
            {
              "internalType": "string",
              "name": "course",
              "type": "string"
            },
            {
              "internalType": "string",
              "name": "date",
              "type": "string"
            },
            {
              "internalType": "bool",
              "name": "minted",
              "type": "bool"
            }
          ],
          "internalType": "struct ID3Minter.Diploma",
          "name": "",
          "type": "tuple"
        }
      ],
      "stateMutability": "view",
      "type": "function",
      "constant": true
    },
    {
      "inputs": [],
      "name": "getCurrentTokenId",
      "outputs": [
        {
          "internalType": "uint256",
          "name": "",
          "type": "uint256"
        }
      ],
      "stateMutability": "view",
      "type": "function",
      "constant": true
    },
    {
      "inputs": [],
      "name": "getBeneficiarioWallet",
      "outputs": [
        {
          "internalType": "address",
          "name": "",
          "type": "address"
        }
      ],
      "stateMutability": "view",
      "type": "function",
      "constant": true
    },
    {
      "inputs": [
        {
          "internalType": "address",
          "name": "_studentAccount",
          "type": "address"
        },
        {
          "internalType": "string",
          "name": "_name",
          "type": "string"
        },
        {
          "internalType": "string",
          "name": "_course",
          "type": "string"
        },
        {
          "internalType": "string",
          "name": "_date",
          "type": "string"
        },
        {
          "internalType": "string",
          "name": "uri",
          "type": "string"
        }
      ],
      "name": "mintDiploma",
      "outputs": [],
      "stateMutability": "nonpayable",
      "type": "function"
    },
    {
      "inputs": [
        {
          "internalType": "string",
          "name": "uri",
          "type": "string"
        },
        {
          "internalType": "address",
          "name": "_to",
          "type": "address"
        }
      ],
      "name": "payableMint",
      "outputs": [],
      "stateMutability": "payable",
      "type": "function",
      "payable": true
    },
    {
      "inputs": [
        {
          "internalType": "address",
          "name": "_to",
          "type": "address"
        },
        {
          "internalType": "string",
          "name": "_uri",
          "type": "string"
        }
      ],
      "name": "mintTo",
      "outputs": [],
      "stateMutability": "nonpayable",
      "type": "function"
    },
    {
      "inputs": [
        {
          "internalType": "uint256",
          "name": "_tokenId",
          "type": "uint256"
        },
        {
          "internalType": "string",
          "name": "_tokenURI",
          "type": "string"
        }
      ],
      "name": "updateTokenURI",
      "outputs": [],
      "stateMutability": "nonpayable",
      "type": "function"
    },
    {
      "inputs": [
        {
          "internalType": "address",
          "name": "_studentAccount",
          "type": "address"
        },
        {
          "internalType": "string",
          "name": "_course",
          "type": "string"
        },
        {
          "internalType": "string",
          "name": "_name",
          "type": "string"
        },
        {
          "internalType": "string",
          "name": "_date",
          "type": "string"
        }
      ],
      "name": "editDiploma",
      "outputs": [],
      "stateMutability": "nonpayable",
      "type": "function"
    },
    {
      "inputs": [
        {
          "internalType": "address",
          "name": "_studentAccount",
          "type": "address"
        },
        {
          "internalType": "string",
          "name": "_course",
          "type": "string"
        }
      ],
      "name": "deleteDiploma",
      "outputs": [],
      "stateMutability": "nonpayable",
      "type": "function"
    },
    {
      "inputs": [
        {
          "internalType": "address",
          "name": "_studentAccount",
          "type": "address"
        }
      ],
      "name": "deleteStudentEnrolled",
      "outputs": [],
      "stateMutability": "nonpayable",
      "type": "function"
    },
    {
      "inputs": [],
      "name": "pause",
      "outputs": [],
      "stateMutability": "nonpayable",
      "type": "function"
    },
    {
      "inputs": [],
      "name": "unpause",
      "outputs": [],
      "stateMutability": "nonpayable",
      "type": "function"
    },
    {
      "inputs": [
        {
          "internalType": "uint256",
          "name": "tokenId",
          "type": "uint256"
        }
      ],
      "name": "tokenURI",
      "outputs": [
        {
          "internalType": "string",
          "name": "",
          "type": "string"
        }
      ],
      "stateMutability": "view",
      "type": "function",
      "constant": true
    },
    {
      "inputs": [
        {
          "internalType": "bytes4",
          "name": "interfaceId",
          "type": "bytes4"
        }
      ],
      "name": "supportsInterface",
      "outputs": [
        {
          "internalType": "bool",
          "name": "",
          "type": "bool"
        }
      ],
      "stateMutability": "view",
      "type": "function",
      "constant": true
    }
  ],
  "bytecode": "0x60a06040523480156200001157600080fd5b5060405162003995380380620039958339810160408190526200003491620002d4565b604080518082018252600881527f49443350726f6f6600000000000000000000000000000000000000000000000060208083019182528351808501909452600584527f4944335043000000000000000000000000000000000000000000000000000000908401528151919291620000ae9160009162000220565b508051620000c490600190602084019062000220565b5050600b805460ff1916905550620000f7620000e8640100000000620001b9810204565b640100000000620001bd810204565b6040516200010590620002af565b604051809103906000f08015801562000122573d6000803e3d6000fd5b50600160a060020a039081166c0100000000000000000000000002608052600e8054600160a060020a03191691831691909117905562000171600c640100000000620002178102620015d21704565b6001601060006200018a640100000000620001b9810204565b600160a060020a031681526020810191909152604001600020805460ff1916911515919091179055506200035a565b3390565b600b8054600160a060020a0383811661010081810261010060a860020a031985161790945560405193909204169182907f8be0079c531659141344cd1fd0a4f28419497f9722a3daafe3b4186f6b6457e090600090a35050565b80546001019055565b8280546200022e9062000304565b90600052602060002090601f0160209004810192826200025257600085556200029d565b82601f106200026d57805160ff19168380011785556200029d565b828001600101855582156200029d579182015b828111156200029d57825182559160200191906001019062000280565b50620002ab929150620002bd565b5090565b6105d480620033c183390190565b5b80821115620002ab5760008155600101620002be565b600060208284031215620002e6578081fd5b8151600160a060020a0381168114620002fd578182fd5b9392505050565b6002810460018216806200031957607f821691505b6020821081141562000354577f4e487b7100000000000000000000000000000000000000000000000000000000600052602260045260246000fd5b50919050565b6080516c01000000000000000000000000900461302d6200039460003960008181610a06015281816112400152611be6015261302d6000f3fe6080604052600436106101cd5760e060020a600035046275a31781146101d257806301ffc9a7146101f457806306fdde0314610229578063081812fc1461024b578063095ea7b31461027857806318160ddd1461029857806318e97fd1146102b757806323b872dd146102d75780632f745c59146102f757806331b3eb9414610317578063355cadc0146103375780633f4ba83a1461035757806342842e0e1461036c57806342966c681461038c5780634f6ccce7146103ac578063508c0cb6146103cc57806356189236146104055780635c975abb1461041a57806362bc4c36146104325780636352211e14610452578063664f2ba21461047257806370a0823114610490578063715018a6146104b05780637bb37035146104c55780637ff9b596146104e55780638456cb59146104fb57806384b783eb146105105780638da5cb5b1461053057806391b7f5ed1461054557806395d89b4114610565578063a22cb4651461057a578063afd74fc01461059a578063b88d4fde146105ad578063c8724acd146105cd578063c87b56dd146105ed578063d971e7421461060d578063e2982c211461062d578063e985e9c51461064d578063eec8a5391461066d578063f2fde38b1461069a575b600080fd5b3480156101de57600080fd5b506101f26101ed3660046129b4565b6106ba565b005b34801561020057600080fd5b5061021461020f366004612b70565b61071b565b60405190151581526020015b60405180910390f35b34801561023557600080fd5b5061023e61072c565b6040516102209190612d12565b34801561025757600080fd5b5061026b610266366004612bec565b6107be565b6040516102209190612cc1565b34801561028457600080fd5b506101f2610293366004612b45565b6107e5565b3480156102a457600080fd5b506008545b604051908152602001610220565b3480156102c357600080fd5b506101f26102d2366004612c1c565b610909565b3480156102e357600080fd5b506101f26102f23660046128c7565b61091b565b34801561030357600080fd5b506102a9610312366004612b45565b610950565b34801561032357600080fd5b506101f2610332366004612873565b6109ec565b34801561034357600080fd5b506101f2610352366004612873565b610a70565b34801561036357600080fd5b506101f2610a9a565b34801561037857600080fd5b506101f26103873660046128c7565b610aac565b34801561039857600080fd5b506101f26103a7366004612bec565b610ac7565b3480156103b857600080fd5b506102a96103c7366004612bec565b610afb565b3480156103d857600080fd5b506102146103e7366004612873565b600160a060020a031660009081526010602052604090205460ff1690565b34801561041157600080fd5b506102a9610ba5565b34801561042657600080fd5b50600b5460ff16610214565b34801561043e57600080fd5b506101f261044d366004612a01565b610bb5565b34801561045e57600080fd5b5061026b61046d366004612bec565b610c5a565b34801561047e57600080fd5b50600e54600160a060020a031661026b565b34801561049c57600080fd5b506102a96104ab366004612873565b610c91565b3480156104bc57600080fd5b506101f2610d1d565b3480156104d157600080fd5b506101f26104e0366004612873565b610d2f565b3480156104f157600080fd5b506102a9600d5481565b34801561050757600080fd5b506101f2610d58565b34801561051c57600080fd5b506101f261052b366004612873565b610d68565b34801561053c57600080fd5b5061026b610d94565b34801561055157600080fd5b506101f2610560366004612bec565b610da8565b34801561057157600080fd5b5061023e610db5565b34801561058657600080fd5b506101f2610595366004612983565b610dc4565b6101f26105a8366004612ba8565b610dcf565b3480156105b957600080fd5b506101f26105c8366004612907565b610e8f565b3480156105d957600080fd5b506101f26105e8366004612a8b565b610eca565b3480156105f957600080fd5b5061023e610608366004612bec565b611191565b34801561061957600080fd5b506101f26106283660046129b4565b61119c565b34801561063957600080fd5b506102a9610648366004612873565b611223565b34801561065957600080fd5b5061021461066836600461288f565b6112c5565b34801561067957600080fd5b5061068d6106883660046129b4565b6112f3565b6040516102209190612e7e565b3480156106a657600080fd5b506101f26106b5366004612873565b611556565b6106c26115db565b6106d4826106cf600c5490565b61163d565b6106e66106e0600c5490565b82611657565b6106f282610668610d94565b6107095761070982610702610d94565b6001611720565b610717600c80546001019055565b5050565b6000610726826117f1565b92915050565b60606000805461073b90612f53565b80601f016020809104026020016040519081016040528092919081815260200182805461076790612f53565b80156107b45780601f10610789576101008083540402835291602001916107b4565b820191906000526020600020905b81548152906001019060200180831161079757829003601f168201915b5050505050905090565b60006107c982611819565b50600090815260046020526040902054600160a060020a031690565b60006107f082610c5a565b905080600160a060020a031683600160a060020a031614156108695760405160e560020a62461bcd02815260206004820152602160248201527f4552433732313a20617070726f76616c20746f2063757272656e74206f776e65604482015260f960020a60390260648201526084015b60405180910390fd5b33600160a060020a0382161480610885575061088581336112c5565b6108fa5760405160e560020a62461bcd02815260206004820152603d60248201527f4552433732313a20617070726f76652063616c6c6572206973206e6f7420746f60448201527f6b656e206f776e6572206f7220617070726f76656420666f7220616c6c0000006064820152608401610860565b6109048383611841565b505050565b6109116115db565b6107178282611657565b610926335b826118af565b6109455760405160e560020a62461bcd02815260040161086090612d25565b61090483838361190e565b600061095b83610c91565b82106109c35760405160e560020a62461bcd02815260206004820152602b60248201527f455243373231456e756d657261626c653a206f776e657220696e646578206f75604482015260a860020a6a74206f6620626f756e6473026064820152608401610860565b50600160a060020a03919091166000908152600660209081526040808320938352929052205490565b60405160e060020a6351cff8d9028152600160a060020a037f000000000000000000000000000000000000000000000000000000000000000016906351cff8d990610a3b908490600401612cc1565b600060405180830381600087803b158015610a5557600080fd5b505af1158015610a69573d6000803e3d6000fd5b5050505050565b610a786115db565b600e8054600160a060020a031916600160a060020a0392909216919091179055565b610aa26115db565b610aaa611a79565b565b61090483838360405180602001604052806000815250610e8f565b610ad033610920565b610aef5760405160e560020a62461bcd02815260040161086090612d25565b610af881611ac5565b50565b6000610b0660085490565b8210610b6f5760405160e560020a62461bcd02815260206004820152602c60248201527f455243373231456e756d657261626c653a20676c6f62616c20696e646578206f604482015260a060020a6b7574206f6620626f756e6473026064820152608401610860565b60088281548110610b935760e060020a634e487b7102600052603260045260246000fd5b90600052602060002001549050919050565b6000610bb0600c5490565b905090565b610bbd6115db565b600160a060020a0384166000908152600f6020526040908190209051839190610be7908690612c76565b90815260200160405180910390206001019080519060200190610c0b929190612710565b50600160a060020a0384166000908152600f6020526040908190209051829190610c36908690612c76565b90815260200160405180910390206003019080519060200190610a69929190612710565b600080610c6683611ace565b9050600160a060020a0381166107265760405160e560020a62461bcd02815260040161086090612e49565b6000600160a060020a038216610d015760405160e560020a62461bcd02815260206004820152602960248201527f4552433732313a2061646472657373207a65726f206973206e6f742061207661604482015260b960020a683634b21037bbb732b9026064820152608401610860565b50600160a060020a031660009081526003602052604090205490565b610d256115db565b610aaa6000611ae9565b610d376115db565b600160a060020a03166000908152601060205260409020805460ff19169055565b610d606115db565b610aaa611b43565b610d706115db565b600160a060020a03166000908152601060205260409020805460ff19166001179055565b600b546101009004600160a060020a031690565b610db06115db565b600d55565b60606001805461073b90612f53565b610717338383611720565b610dd7611b80565b600d54341015610e3e5760405160e560020a62461bcd02815260206004820152602660248201527f4944333a204e6f7420656e6f756768204554482073656e743b20636865636b20604482015260d060020a65707269636521026064820152608401610860565b610e4b816106cf600c5490565b610e5d610e57600c5490565b83611657565b610e6981610668610d94565b610e7957610e7981610702610d94565b600e5461070990600160a060020a031634611bcc565b610e9933836118af565b610eb85760405160e560020a62461bcd02815260040161086090612d25565b610ec484848484611c53565b50505050565b600160a060020a038516600090815260106020526040902054859060ff161515600114610f545760405160e560020a62461bcd02815260206004820152602c60248201527f4944333a20446972656363696f6e206e6f207265676973747261646120636f6d604482015260a060020a6b6f20657374756469616e7465026064820152608401610860565b610f5c611b80565b610f668685611c89565b15610fc45760405160e560020a62461bcd02815260206004820152602260248201527f4944333a20456c206469706c6f6d61207961206861207369646f20656d697469604482015260f060020a61646f026064820152608401610860565b600160a060020a0386166000908152600f6020526040908190209051879190610fee908790612c76565b90815260408051602092819003830181208054600160a060020a031916600160a060020a039586161790559289166000908152600f90925290208691611035908790612c76565b90815260200160405180910390206001019080519060200190611059929190612710565b50600160a060020a0386166000908152600f6020526040908190209051859190611084908390612c76565b908152602001604051809103902060020190805190602001906110a8929190612710565b50600160a060020a0386166000908152600f60205260409081902090518491906110d3908790612c76565b908152602001604051809103902060030190805190602001906110f7929190612710565b50600160a060020a0386166000908152600f602052604090819020905160019190611123908790612c76565b908152604051908190036020019020600401805491151560ff19909216919091179055611153866106cf600c5490565b61115f610e57600c5490565b61116b86610668610d94565b61117b5761117b86610702610d94565b611189600c80546001019055565b505050505050565b606061072682611cdf565b6111a46115db565b600160a060020a0382166000908152600f60205260409081902090516111cb908390612c76565b9081526040519081900360200190208054600160a060020a031916815560006111f76001830182612794565b611205600283016000612794565b611213600383016000612794565b50600401805460ff191690555050565b60405160e160020a6371d4ed8d028152600090600160a060020a037f0000000000000000000000000000000000000000000000000000000000000000169063e3a9db1a90611275908590600401612cc1565b60206040518083038186803b15801561128d57600080fd5b505afa1580156112a1573d6000803e3d6000fd5b505050506040513d601f19601f820116820180604052508101906107269190612c04565b600160a060020a03918216600090815260056020908152604080832093909416825291909152205460ff1690565b6113306040518060a001604052806000600160a060020a031681526020016060815260200160608152602001606081526020016000151581525090565b611338611b80565b600160a060020a0383166000908152600f602052604090819020905161135f908490612c76565b90815260408051918290036020908101832060a084019092528154600160a060020a031683526001820180549184019161139890612f53565b80601f01602080910402602001604051908101604052809291908181526020018280546113c490612f53565b80156114115780601f106113e657610100808354040283529160200191611411565b820191906000526020600020905b8154815290600101906020018083116113f457829003601f168201915b5050505050815260200160028201805461142a90612f53565b80601f016020809104026020016040519081016040528092919081815260200182805461145690612f53565b80156114a35780601f10611478576101008083540402835291602001916114a3565b820191906000526020600020905b81548152906001019060200180831161148657829003601f168201915b505050505081526020016003820180546114bc90612f53565b80601f01602080910402602001604051908101604052809291908181526020018280546114e890612f53565b80156115355780601f1061150a57610100808354040283529160200191611535565b820191906000526020600020905b81548152906001019060200180831161151857829003601f168201915b50505091835250506004919091015460ff1615156020909101529392505050565b61155e6115db565b600160a060020a0381166115c95760405160e560020a62461bcd02815260206004820152602660248201527f4f776e61626c653a206e6577206f776e657220697320746865207a65726f2061604482015260d060020a65646472657373026064820152608401610860565b610af881611ae9565b80546001019055565b336115e4610d94565b600160a060020a031614610aaa5760405160e560020a62461bcd02815260206004820181905260248201527f4f776e61626c653a2063616c6c6572206973206e6f7420746865206f776e65726044820152606401610860565b610717828260405180602001604052806000815250611de8565b61166082611e1e565b6116c95760405160e560020a62461bcd02815260206004820152602e60248201527f45524337323155524953746f726167653a2055524920736574206f66206e6f6e6044820152609160020a6d32bc34b9ba32b73a103a37b5b2b7026064820152608401610860565b6000828152600a6020908152604090912082516116e892840190612710565b506040518281527ff8e1a15aba9398e019f0b49df1a4fde98ee17ae345cb5f6b5e2c27f5033e8ce79060200160405180910390a15050565b81600160a060020a031683600160a060020a031614156117845760405160e560020a62461bcd0281526020600482015260196024820152603960020a7822a9219b99189d1030b8383937bb32903a379031b0b63632b9026044820152606401610860565b600160a060020a03838116600081815260056020908152604080832094871680845294825291829020805460ff191686151590811790915591519182527f17307eab39ab6107e8899845ad3d59bd9653f200f220920489ca2b5937696c31910160405180910390a3505050565b6000600160e060020a0319821660e160020a6324832483021480610726575061072682611e3b565b61182281611e1e565b610af85760405160e560020a62461bcd02815260040161086090612e49565b60008181526004602052604090208054600160a060020a031916600160a060020a038416908117909155819061187682610c5a565b600160a060020a03167f8c5be1e5ebec7d5bd14f71427d1e84f3dd0314c0f7b2291e5b200ac8c7c3b92560405160405180910390a45050565b6000806118bb83610c5a565b905080600160a060020a031684600160a060020a031614806118e257506118e281856112c5565b80611906575083600160a060020a03166118fb846107be565b600160a060020a0316145b949350505050565b82600160a060020a031661192182610c5a565b600160a060020a03161461194a5760405160e560020a62461bcd02815260040161086090612dca565b600160a060020a0382166119b25760405160e560020a62461bcd028152602060048201526024808201527f4552433732313a207472616e7366657220746f20746865207a65726f20616464604482015260e060020a6372657373026064820152608401610860565b6119bf8383836001611e63565b82600160a060020a03166119d282610c5a565b600160a060020a0316146119fb5760405160e560020a62461bcd02815260040161086090612dca565b60008181526004602090815260408083208054600160a060020a0319908116909155600160a060020a038781168086526003855283862080546000190190559087168086528386208054600101905586865260029094528285208054909216841790915590518493600080516020612fd883398151915291a4505050565b611a81611e77565b600b805460ff191690557f5db9ee0a495bf2e6ff9c91a7834c1ba4fdd244a5e8aa4e537bd38aeae4b073aa335b604051611abb9190612cc1565b60405180910390a1565b610af881611ec6565b600090815260026020526040902054600160a060020a031690565b600b8054600160a060020a0383811661010081810261010060a860020a031985161790945560405193909204169182907f8be0079c531659141344cd1fd0a4f28419497f9722a3daafe3b4186f6b6457e090600090a35050565b611b4b611b80565b600b805460ff191660011790557f62e78cea01bee320cd4e420270b5ea74000d11b0c9f74754ebdbfc544b05a258611aae3390565b600b5460ff1615610aaa5760405160e560020a62461bcd0281526020600482015260106024820152608260020a6f14185d5cd8589b194e881c185d5cd959026044820152606401610860565b60405160e060020a63f340fa01028152600160a060020a037f0000000000000000000000000000000000000000000000000000000000000000169063f340fa01908390611c1d908690600401612cc1565b6000604051808303818588803b158015611c3657600080fd5b505af1158015611c4a573d6000803e3d6000fd5b50505050505050565b611c5e84848461190e565b611c6a84848484611f06565b610ec45760405160e560020a62461bcd02815260040161086090612d75565b600160a060020a0382166000908152600f60205260408082209051611caf908490612c76565b9081526040519081900360200190206004015460ff16151560011415611cd757506001610726565b506000610726565b6060611cea82611819565b6000828152600a602052604081208054611d0390612f53565b80601f0160208091040260200160405190810160405280929190818152602001828054611d2f90612f53565b8015611d7c5780601f10611d5157610100808354040283529160200191611d7c565b820191906000526020600020905b815481529060010190602001808311611d5f57829003601f168201915b505050505090506000611d9a60408051602081019091526000815290565b9050805160001415611dad575092915050565b815115611ddf578082604051602001611dc7929190612c92565b60405160208183030381529060405292505050919050565b6119068461201c565b611df28383612090565b611dff6000848484611f06565b6109045760405160e560020a62461bcd02815260040161086090612d75565b600080611e2a83611ace565b600160a060020a0316141592915050565b6000600160e060020a0319821660e060020a63780e9d630214806107265750610726826121a2565b611e6b611b80565b610ec4848484846121fb565b600b5460ff16610aaa5760405160e560020a62461bcd0281526020600482015260146024820152606260020a7314185d5cd8589b194e881b9bdd081c185d5cd959026044820152606401610860565b611ecf8161232e565b6000818152600a602052604090208054611ee890612f53565b159050610af8576000818152600a60205260408120610af891612794565b6000600160a060020a0384163b156120115760405160e160020a630a85bd01028152600160a060020a0385169063150b7a0290611f4d903390899088908890600401612cd5565b602060405180830381600087803b158015611f6757600080fd5b505af1925050508015611f97575060408051601f3d908101601f19168201909252611f9491810190612b8c565b60015b611ff4573d808015611fc5576040519150601f19603f3d011682016040523d82523d6000602084013e611fca565b606091505b508051611fec5760405160e560020a62461bcd02815260040161086090612d75565b805181602001fd5b600160e060020a03191660e160020a630a85bd0102149050611906565b506001949350505050565b606061202782611819565b600061203e60408051602081019091526000815290565b9050600081511161205e5760405180602001604052806000815250612089565b80612068846123bf565b604051602001612079929190612c92565b6040516020818303038152906040525b9392505050565b600160a060020a0382166120e95760405160e560020a62461bcd02815260206004820181905260248201527f4552433732313a206d696e7420746f20746865207a65726f20616464726573736044820152606401610860565b6120f281611e1e565b156121125760405160e560020a62461bcd02815260040161086090612e12565b612120600083836001611e63565b61212981611e1e565b156121495760405160e560020a62461bcd02815260040161086090612e12565b600160a060020a03821660008181526003602090815260408083208054600101905584835260029091528082208054600160a060020a031916841790555183929190600080516020612fd8833981519152908290a45050565b6000600160e060020a0319821660e060020a6380ac58cd0214806121d95750600160e060020a0319821660e060020a635b5e139f02145b80610726575060e060020a6301ffc9a702600160e060020a0319831614610726565b60018111156122705760405160e560020a62461bcd02815260206004820152603560248201527f455243373231456e756d657261626c653a20636f6e73656375746976652074726044820152605a60020a74185b9cd9995c9cc81b9bdd081cdd5c1c1bdc9d1959026064820152608401610860565b81600160a060020a0385166122cc576122c781600880546000838152600960205260408120829055600182018355919091527ff3f7a9fe364faab93b216da50a3214154f22a0a2b415b23a84c8169e8b636ee30155565b6122ef565b83600160a060020a031685600160a060020a0316146122ef576122ef858261246f565b600160a060020a03841661230b576123068161250c565b610a69565b84600160a060020a031684600160a060020a031614610a6957610a6984826125ee565b600061233982610c5a565b9050612349816000846001611e63565b61235282610c5a565b60008381526004602090815260408083208054600160a060020a0319908116909155600160a060020a038516808552600384528285208054600019019055878552600290935281842080549091169055519293508492600080516020612fd8833981519152908390a45050565b606060006123cc83612632565b60010190506000816001604060020a038111156123fc5760e060020a634e487b7102600052604160045260246000fd5b6040519080825280601f01601f191660200182016040528015612426576020820181803683370190505b5090508181016020015b60001901608160020a6f181899199a1a9b1b9c1cb0b131b232b302600a86061a8153600a850494508461246257612467565b612430565b509392505050565b6000600161247c84610c91565b6124869190612f01565b6000838152600760205260409020549091508082146124d957600160a060020a03841660009081526006602090815260408083208584528252808320548484528184208190558352600790915290208190555b506000918252600760209081526040808420849055600160a060020a039094168352600681528383209183525290812055565b60085460009061251e90600190612f01565b600083815260096020526040812054600880549394509092849081106125575760e060020a634e487b7102600052603260045260246000fd5b9060005260206000200154905080600883815481106125895760e060020a634e487b7102600052603260045260246000fd5b60009182526020808320909101929092558281526009909152604080822084905585825281205560088054806125d25760e060020a634e487b7102600052603160045260246000fd5b6001900381819060005260206000200160009055905550505050565b60006125f983610c91565b600160a060020a039093166000908152600660209081526040808320868452825280832085905593825260079052919091209190915550565b600080604060020a72184f03e93ff9f4daa797ed6e38ed64bf6a1f0102831061267757604060020a72184f03e93ff9f4daa797ed6e38ed64bf6a1f0102830492506040015b6d04ee2d6d415b85acef810000000083106126a3576d04ee2d6d415b85acef8100000000830492506020015b662386f26fc1000083106126c157662386f26fc10000830492506010015b6305f5e10083106126d9576305f5e100830492506008015b61271083106126ed57612710830492506004015b606483106126ff576064830492506002015b600a83106107265760010192915050565b82805461271c90612f53565b90600052602060002090601f01602090048101928261273e5760008555612784565b82601f1061275757805160ff1916838001178555612784565b82800160010185558215612784579182015b82811115612784578251825591602001919060010190612769565b506127909291506127ca565b5090565b5080546127a090612f53565b6000825580601f106127b0575050565b601f016020900490600052602060002090810190610af891905b5b8082111561279057600081556001016127cb565b60006001604060020a03808411156127f9576127f9612f92565b604051601f8501601f19908116603f0116810190828211818310171561282157612821612f92565b8160405280935085815286868601111561283a57600080fd5b858560208301376000602087830101525050509392505050565b600082601f830112612864578081fd5b612089838335602085016127df565b600060208284031215612884578081fd5b813561208981612fac565b600080604083850312156128a1578081fd5b82356128ac81612fac565b915060208301356128bc81612fac565b809150509250929050565b6000806000606084860312156128db578081fd5b83356128e681612fac565b925060208401356128f681612fac565b929592945050506040919091013590565b6000806000806080858703121561291c578081fd5b843561292781612fac565b9350602085013561293781612fac565b92506040850135915060608501356001604060020a03811115612958578182fd5b8501601f81018713612968578182fd5b612977878235602084016127df565b91505092959194509250565b60008060408385031215612995578182fd5b82356129a081612fac565b9150602083013580151581146128bc578182fd5b600080604083850312156129c6578182fd5b82356129d181612fac565b915060208301356001604060020a038111156129eb578182fd5b6129f785828601612854565b9150509250929050565b60008060008060808587031215612a16578384fd5b8435612a2181612fac565b935060208501356001604060020a0380821115612a3c578485fd5b612a4888838901612854565b94506040870135915080821115612a5d578384fd5b612a6988838901612854565b93506060870135915080821115612a7e578283fd5b5061297787828801612854565b600080600080600060a08688031215612aa2578081fd5b8535612aad81612fac565b945060208601356001604060020a0380821115612ac8578283fd5b612ad489838a01612854565b95506040880135915080821115612ae9578283fd5b612af589838a01612854565b94506060880135915080821115612b0a578283fd5b612b1689838a01612854565b93506080880135915080821115612b2b578283fd5b50612b3888828901612854565b9150509295509295909350565b60008060408385031215612b57578182fd5b8235612b6281612fac565b946020939093013593505050565b600060208284031215612b81578081fd5b813561208981612fc1565b600060208284031215612b9d578081fd5b815161208981612fc1565b60008060408385031215612bba578182fd5b82356001604060020a03811115612bcf578283fd5b612bdb85828601612854565b92505060208301356128bc81612fac565b600060208284031215612bfd578081fd5b5035919050565b600060208284031215612c15578081fd5b5051919050565b60008060408385031215612c2e578182fd5b8235915060208301356001604060020a038111156129eb578182fd5b60008151808452612c62816020860160208601612f27565b601f01601f19169290920160200192915050565b60008251612c88818460208701612f27565b9190910192915050565b60008351612ca4818460208801612f27565b835190830190612cb8818360208801612f27565b01949350505050565b600160a060020a0391909116815260200190565b600160a060020a0385811682528416602082015260408101839052608060608201819052600090612d0890830184612c4a565b9695505050505050565b6020815260006120896020830184612c4a565b6020808252602d908201527f4552433732313a2063616c6c6572206973206e6f7420746f6b656e206f776e656040820152609a60020a6c1c881bdc88185c1c1c9bdd995902606082015260800190565b60208082526032908201527f4552433732313a207472616e7366657220746f206e6f6e2045524337323152656040820152607160020a7131b2b4bb32b91034b6b83632b6b2b73a32b902606082015260800190565b60208082526025908201527f4552433732313a207472616e736665722066726f6d20696e636f727265637420604082015260d960020a6437bbb732b902606082015260800190565b6020808252601c908201527f4552433732313a20746f6b656e20616c7265616479206d696e74656400000000604082015260600190565b6020808252601890820152604260020a77115490cdcc8c4e881a5b9d985b1a59081d1bdad95b88125102604082015260600190565b60208082528251600160a060020a03168282015282015160a06040830152600090612eac60c0840182612c4a565b90506040840151601f1980858403016060860152612eca8383612c4a565b9250606086015191508085840301608086015250612ee88282612c4a565b9150506080840151151560a08401528091505092915050565b600082821015612f225760e060020a634e487b710281526011600452602481fd5b500390565b60005b83811015612f42578181015183820152602001612f2a565b83811115610ec45750506000910152565b600281046001821680612f6757607f821691505b60208210811415612f8c5760e060020a634e487b710260009081526022600452602490fd5b50919050565b60e060020a634e487b710260009081526041600452602490fd5b600160a060020a0381168114610af857600080fd5b600160e060020a031981168114610af857600080fdfeddf252ad1be2c89b69c2b068fc378daa952ba7f163c4a11628f55a4df523b3efa26469706673582212201146e6c812ae114dc2e615aeb36df77345de4723101f2861052856138cc848f964736f6c63430008040033608060405234801561001057600080fd5b50610033610025640100000000610038810204565b64010000000061003c810204565b61008c565b3390565b60008054600160a060020a03838116600160a060020a0319831681178455604051919092169283917f8be0079c531659141344cd1fd0a4f28419497f9722a3daafe3b4186f6b6457e09190a35050565b6105398061009b6000396000f3fe6080604052600436106100585760e060020a600035046351cff8d9811461005d578063715018a61461007f5780638da5cb5b14610094578063e3a9db1a146100c6578063f2fde38b1461010a578063f340fa011461012a575b600080fd5b34801561006957600080fd5b5061007d6100783660046104a4565b61013d565b005b34801561008b57600080fd5b5061007d6101b4565b3480156100a057600080fd5b506100a96101c8565b604051600160a060020a0390911681526020015b60405180910390f35b3480156100d257600080fd5b506100fc6100e13660046104a4565b600160a060020a031660009081526001602052604090205490565b6040519081526020016100bd565b34801561011657600080fd5b5061007d6101253660046104a4565b6101d7565b61007d6101383660046104a4565b61025b565b6101456102cd565b600160a060020a038116600081815260016020526040812080549190559061016d908261032f565b81600160a060020a03167f7084f5476618d8e60b11ef0d7d3f06914655adb8793e28ff7f018d4c76d505d5826040516101a891815260200190565b60405180910390a25050565b6101bc6102cd565b6101c66000610454565b565b600054600160a060020a031690565b6101df6102cd565b600160a060020a03811661024f5760405160e560020a62461bcd02815260206004820152602660248201527f4f776e61626c653a206e6577206f776e657220697320746865207a65726f2061604482015260d060020a656464726573730260648201526084015b60405180910390fd5b61025881610454565b50565b6102636102cd565b600160a060020a03811660009081526001602052604081208054349283929161028d9084906104c7565b9091555050604051818152600160a060020a038316907f2da466a7b24304f47e87fa2e1e5a81b9831ce54fec19055ce277ca2f39ba42c4906020016101a8565b336102d66101c8565b600160a060020a0316146101c65760405160e560020a62461bcd02815260206004820181905260248201527f4f776e61626c653a2063616c6c6572206973206e6f7420746865206f776e65726044820152606401610246565b30318111156103835760405160e560020a62461bcd02815260206004820152601d60248201527f416464726573733a20696e73756666696369656e742062616c616e63650000006044820152606401610246565b600082600160a060020a03168260405160006040518083038185875af1925050503d80600081146103d0576040519150601f19603f3d011682016040523d82523d6000602084013e6103d5565b606091505b505090508061044f5760405160e560020a62461bcd02815260206004820152603a60248201527f416464726573733a20756e61626c6520746f2073656e642076616c75652c207260448201527f6563697069656e74206d617920686176652072657665727465640000000000006064820152608401610246565b505050565b60008054600160a060020a03838116600160a060020a0319831681178455604051919092169283917f8be0079c531659141344cd1fd0a4f28419497f9722a3daafe3b4186f6b6457e09190a35050565b6000602082840312156104b5578081fd5b81356104c0816104ee565b9392505050565b600082198211156104e95760e060020a634e487b710281526011600452602481fd5b500190565b600160a060020a038116811461025857600080fdfea2646970667358221220e3a3edb6c16230f9d4b478ec93e1ca8caa9d8f03edf7e6b057a4a210c5d78feb64736f6c63430008040033",
  "immutableReferences": {
    "881": [
      {
        "length": 32,
        "start": 2566
      },
      {
        "length": 32,
        "start": 4672
      },
      {
        "length": 32,
        "start": 7142
      }
    ]
  },
  "source": "// SPDX-License-Identifier: MIT\npragma solidity ^0.8.4;\n\nimport \"../node_modules/@openzeppelin/contracts/token/ERC721/ERC721.sol\";\nimport \"../node_modules/@openzeppelin/contracts/token/ERC721/extensions/ERC721Enumerable.sol\";\nimport \"../node_modules/@openzeppelin/contracts/token/ERC721/extensions/ERC721URIStorage.sol\";\nimport \"../node_modules/@openzeppelin/contracts/security/Pausable.sol\";\nimport \"../node_modules/@openzeppelin/contracts/access/Ownable.sol\";\nimport \"../node_modules/@openzeppelin/contracts/token/ERC721/extensions/ERC721Burnable.sol\";\nimport \"../node_modules/@openzeppelin/contracts/utils/Counters.sol\";\nimport \"../node_modules/@openzeppelin/contracts/security/PullPayment.sol\";\n\n\n// ERC721 es el estandar de los NFTs que utilizaremos para la coleccin. Ms informacin en https://eips.ethereum.org/EIPS/eip-721\n// ERC721Enumerable es una extensin de ERC721 que permite listar los tokens de un usuario. Ms informacin en https://eips.ethereum.org/EIPS/eip-721\n// ERC721URIStorage es una extensin de ERC721 que permite almacenar los metadatos de los tokens. Ms informacin en https://eips.ethereum.org/EIPS/eip-721\n// Pausable es un contrato que permite pausar la transferencia de tokens. Ms informacin en https://docs.openzeppelin.com/contracts/4.x/api/security#Pausable\n// Ownable es un contrato que permite establecer un propietario del contrato. Ms informacin en https://docs.openzeppelin.com/contracts/4.x/api/access#Ownable\n// ERC721Burnable es una extensin de ERC721 que permite quemar tokens. Ms informacin en https://docs.openzeppelin.com/contracts/4.x/api/token/erc721#ERC721Burnable\n// Counters es una librera que permite llevar la cuenta de tokens. Ms informacin en https://docs.openzeppelin.com/contracts/4.x/api/utils#Counters\n// PullPayment es un contrato que permite realizar pagos. Ms informacin en https://docs.openzeppelin.com/contracts/4.x/api/payment#PullPayment\n\ncontract ID3Minter is ERC721, ERC721Enumerable, ERC721URIStorage, Pausable, Ownable, ERC721Burnable, PullPayment {\n\n\n    /* El modificador onlyOwner permite que solo el propietario del contrato pueda ejecutar la funcin a la que se le aplica */\n\n    // Usamos la librera Counters para llevar la cuenta de tokens y asignar el ID de cada token. Se declara la variable _tokenIdCounter para ello.\n    using Counters for Counters.Counter;\n    Counters.Counter private _tokenIdCounter;   \n\n    struct Diploma {\n\n        address student;\n        string name;\n        string course;\n        string date;\n        bool minted;\n        \n    }\n\n    uint256 public tokenPrice; // Precio de cada token\n    address private beneficiarioWallet; // Direccin del propietario del contrato\n\n    mapping (address => mapping(string => Diploma)) private Diplomas; // Mapeo que relaciona el ID de cada address del estudiante con su diploma guiardado en el contrato.\n    mapping (address => bool) private esEstudiante; // Mapeo que relaciona el ID de cada address del estudiante con un booleano que indica si es estudiante o no.\n\n    \n    /* CONSTRUCTOR */\n    \n    // En el constructor establecemos el nombre y el smbolo de la coleccin\n\n    constructor(address _beneficiarioWallet) ERC721(\"ID3Proof\", \"ID3PC\") {\n\n        beneficiarioWallet = _beneficiarioWallet; // Establecemos la direccin del propietario del contrato\n        _tokenIdCounter.increment();\n        esEstudiante[_msgSender()] = true; // Establecemos al creador del contrato como estudiante\n\n    }\n\n    /* MODIFICADORES */\n\n    modifier isStudent(address _account2Check) {\n        require(esEstudiante[_account2Check] == true, \"ID3: Direccion no registrada como estudiante\");\n        _;\n    }\n\n    function alreadyMint(address _studentAccount, string  memory _course) internal view returns(bool){\n        \n        if(Diplomas[_studentAccount][_course].minted == true){\n\n            return true;\n\n        } else {\n\n            return false;\n\n        }\n    \n    }\n\n    /* SETTERS */\n\n    function isStudentSetter(address _newstudent) external onlyOwner {\n\n        esEstudiante[_newstudent] = true;\n\n    }\n\n    // La funcin setbeneficiarioWallet() permite establecer una nueva direccin para el propietario del contrato. Solo el propietario del contrato puede ejecutarla.\n\n    function setbeneficiarioWallet(address _newbeneficiarioWallet) external onlyOwner{\n\n        beneficiarioWallet = _newbeneficiarioWallet;\n\n    }\n\n    //La funcin setPrice() permite establecer un nuevo precio para los tokens. Solo el propietario del contrato puede ejecutarla.\n\n    function setPrice(uint256 _newPrice) external onlyOwner{\n\n        tokenPrice = _newPrice;\n\n    }\n\n\n    /* GETTERS */\n\n    function isStudentGetter(address _student) external view returns (bool) {\n        return esEstudiante[_student];\n    }\n\n    function getDiploma(address _student, string memory _course) external view whenNotPaused returns (Diploma memory)  {\n\n        return Diplomas[_student][_course];\n\n    }\n\n    // La funcin getCurrentTokenId() permite obtener el ID del ltimo token creado.\n\n    function getCurrentTokenId() public view returns (uint256) {\n        return _tokenIdCounter.current();\n    }\n\n    function getBeneficiarioWallet() external view returns (address) {\n        return beneficiarioWallet;\n    }\n\n    /* FUNCIONES DE MINT */\n\n    // La funcin mintDiploma() permite crear un nuevo token y asignarlo a una direccin. Solo el propietario del contrato puede ejecutarla.\n\n    function mintDiploma(address _studentAccount, string memory _name, string memory _course, string memory _date,  string memory uri)\n        public\n        isStudent(_studentAccount)\n        whenNotPaused\n    {       \n        require(alreadyMint(_studentAccount, _course) == false, \"ID3: El diploma ya ha sido emitido\");\n\n            Diplomas[_studentAccount][_course].student = _studentAccount;\n            Diplomas[_studentAccount][_course].name = _name;\n            Diplomas[_studentAccount][_course].course = _course;\n            Diplomas[_studentAccount][_course].date = _date;\n            Diplomas[_studentAccount][_course].minted = true;\n\n            _safeMint(_studentAccount, _tokenIdCounter.current());\n            _setTokenURI(_tokenIdCounter.current(), uri);\n\n            if(!(isApprovedForAll(_studentAccount, owner()))){\n                \n                _setApprovalForAll(_studentAccount, owner(), true);\n            }\n            \n            _tokenIdCounter.increment();\n\n    }\n\n    // La funcin payableMint() permite crear un nuevo token y asignarlo a la direccin que la ejecuta. El usuario debe enviar suficiente ETHER para comprar el token.\n\n    function payableMint(string memory uri, address _to)\n    external\n    payable\n    whenNotPaused\n    {\n    require(msg.value >= tokenPrice, \"ID3: Not enough ETH sent; check price!\"); // Comprobamos que el usuario ha enviado suficiente MATIC para comprar el token\n                \n        _safeMint(_to, _tokenIdCounter.current());\n        _setTokenURI(_tokenIdCounter.current(), uri);\n\n        if(!(isApprovedForAll(_to, owner()))){\n                \n                _setApprovalForAll(_to, owner(), true);\n        }\n\n        _asyncTransfer(beneficiarioWallet, msg.value); // Enviamos el ETHER a la cuenta beneficiaria.\n        _tokenIdCounter.increment();\n\n    }\n\n    // La funcin mintTo() permite crear un nuevo token y asignarlo a una direccin. Solo el propietario del contrato puede ejecutarla.\n\n    function mintTo(address _to, string memory _uri) external onlyOwner {\n\n        _safeMint(_to, _tokenIdCounter.current());\n        _setTokenURI(_tokenIdCounter.current(), _uri);\n\n        if(!(isApprovedForAll(_to, owner()))){\n                \n                _setApprovalForAll(_to, owner(), true);\n        }\n        \n        _tokenIdCounter.increment();\n\n    }\n\n\n    /* FUNCIONES DE EDICIN */\n\n    // La funcin updateTokenURI() permite actualizar los metadatos de un token. Solo el propietario del contrato puede ejecutarla.\n\n    function updateTokenURI(uint256 _tokenId, string memory _tokenURI) external onlyOwner {\n\n        _setTokenURI(_tokenId, _tokenURI);\n\n    }\n\n    function editDiploma(address _studentAccount, string memory _course, string memory _name, string memory _date) external onlyOwner {\n        \n        Diplomas[_studentAccount][_course].name = _name;\n        Diplomas[_studentAccount][_course].date = _date;\n\n    }\n\n    /* FUNCIONES DE DELETE */\n\n    function deleteDiploma(address _studentAccount, string memory _course) external onlyOwner {\n\n        delete Diplomas[_studentAccount][_course];\n\n    }\n\n    function deleteStudentEnrolled(address _studentAccount) external onlyOwner {\n\n        delete esEstudiante[_studentAccount];\n\n    }\n\n    /* PAUSE/UNPAUSE */\n\n    // La funcin pause() permite pausar la transferencia de tokens. Solo el propietario del contrato puede ejecutarla.\n\n    function pause() public onlyOwner {\n        _pause();\n    }\n\n    // La funcin unpause() permite reanudar la transferencia de tokens. Slo el propietario del contrato puede ejecutarla.\n\n    function unpause() public onlyOwner {\n        _unpause();\n    }\n\n\n    /* FUNCIONES DE INTERFACES */\n\n    /* Las siguientes funciones son overrides de las funciones de los contratos que heredamos,\n       son necesarias para el correcto funcionamiento del contrato */\n\n    function _beforeTokenTransfer(address from, address to, uint256 tokenId, uint256 batchSize)\n        internal\n        whenNotPaused\n        override(ERC721, ERC721Enumerable)\n    {\n        super._beforeTokenTransfer(from, to, tokenId, batchSize);\n    }\n\n    // La funcin _burn() permite quemar un token\n\n    function _burn(uint256 tokenId) internal override(ERC721, ERC721URIStorage) {\n        super._burn(tokenId);\n    }\n\n    // La funcin tokenURI() permite obtener los metadatos de un token\n\n    function tokenURI(uint256 tokenId)\n        public\n        view\n        override(ERC721, ERC721URIStorage)\n        returns (string memory)\n    {\n        return super.tokenURI(tokenId);\n    }\n\n    // La funcin supportsInterface() permite comprobar si el contrato soporta una interfaz determinada\n\n    function supportsInterface(bytes4 interfaceId)\n        public\n        view\n        override(ERC721, ERC721Enumerable, ERC721URIStorage)\n        returns (bool)\n    {\n        return super.supportsInterface(interfaceId);\n    }\n}\n",
  "sourcePath": "E:\\Chamba\\ESAT\\2023\\id3\\Static Version\\minter\\contracts\\ID3Minter.sol",
  "compiler": {
    "name": "solc",
    "version": "0.8.4+commit.c7e474f2.Emscripten.clang"
  },
  "schemaVersion": "3.4.14",
  "updatedAt": "2023-06-26T22:35:55.115Z",
  "networkType": "ethereum",
  "devdoc": {
    "kind": "dev",
    "methods": {
      "approve(address,uint256)": {
        "details": "See {IERC721-approve}."
      },
      "balanceOf(address)": {
        "details": "See {IERC721-balanceOf}."
      },
      "burn(uint256)": {
        "details": "Burns `tokenId`. See {ERC721-_burn}. Requirements: - The caller must own `tokenId` or be an approved operator."
      },
      "getApproved(uint256)": {
        "details": "See {IERC721-getApproved}."
      },
      "isApprovedForAll(address,address)": {
        "details": "See {IERC721-isApprovedForAll}."
      },
      "name()": {
        "details": "See {IERC721Metadata-name}."
      },
      "owner()": {
        "details": "Returns the address of the current owner."
      },
      "ownerOf(uint256)": {
        "details": "See {IERC721-ownerOf}."
      },
      "paused()": {
        "details": "Returns true if the contract is paused, and false otherwise."
      },
      "payments(address)": {
        "details": "Returns the payments owed to an address.",
        "params": {
          "dest": "The creditor's address."
        }
      },
      "renounceOwnership()": {
        "details": "Leaves the contract without owner. It will not be possible to call `onlyOwner` functions. Can only be called by the current owner. NOTE: Renouncing ownership will leave the contract without an owner, thereby disabling any functionality that is only available to the owner."
      },
      "safeTransferFrom(address,address,uint256)": {
        "details": "See {IERC721-safeTransferFrom}."
      },
      "safeTransferFrom(address,address,uint256,bytes)": {
        "details": "See {IERC721-safeTransferFrom}."
      },
      "setApprovalForAll(address,bool)": {
        "details": "See {IERC721-setApprovalForAll}."
      },
      "symbol()": {
        "details": "See {IERC721Metadata-symbol}."
      },
      "tokenByIndex(uint256)": {
        "details": "See {IERC721Enumerable-tokenByIndex}."
      },
      "tokenOfOwnerByIndex(address,uint256)": {
        "details": "See {IERC721Enumerable-tokenOfOwnerByIndex}."
      },
      "totalSupply()": {
        "details": "See {IERC721Enumerable-totalSupply}."
      },
      "transferFrom(address,address,uint256)": {
        "details": "See {IERC721-transferFrom}."
      },
      "transferOwnership(address)": {
        "details": "Transfers ownership of the contract to a new account (`newOwner`). Can only be called by the current owner."
      },
      "withdrawPayments(address)": {
        "details": "Withdraw accumulated payments, forwarding all gas to the recipient. Note that _any_ account can call this function, not just the `payee`. This means that contracts unaware of the `PullPayment` protocol can still receive funds this way, by having a separate account call {withdrawPayments}. WARNING: Forwarding all gas opens the door to reentrancy vulnerabilities. Make sure you trust the recipient, or are either following the checks-effects-interactions pattern or using {ReentrancyGuard}.",
        "params": {
          "payee": "Whose payments will be withdrawn. Causes the `escrow` to emit a {Withdrawn} event."
        }
      }
    },
    "version": 1
  },
  "userdoc": {
    "kind": "user",
    "methods": {},
    "version": 1
  }
}